:100000000C942A000C9434000C9434000C943400AA
:100010000C9434000C9434000C9434000C94340090
:100020000C9434000C9434000C9434000C94340080
:100030000C9434000C9434000C9434000C94340070
:100040000C9434000C9434000C9434000C94340060
:100050000C94340011241FBECFE5D8E0DEBFCDBF25
:100060000E94C1010C94F6010C940000CF93DF9321
:10007000CDB7DEB764970FB6F894DEBF0FBECDBF25
:1000800028E330E0398B288B87E390E09B8B8A8BC9
:1000900044E04C8B3C872B879E878D871F86BE0153
:1000A000605F7F4FCE0106960E943101BE01655F01
:1000B0007F4FCE0101960E94310160E2CE0106968B
:1000C0000E94830160E0CE0101960E94830184EFCB
:1000D00091E00E947B0060E0CE0106960E948301C1
:1000E00060E2CE0101960E94830184EF91E00E94BC
:1000F0007B00E3CF089523B7216023BF23B722609D
:1001000023BF35E0019740F032BF28B7216028BFF8
:1001100008B600FEFDCFF6CF13BE0895DF92EF9232
:10012000FF920F931F93CF93DF93EB018A0123B7C5
:10013000216023BF23B7226023BF25E0D22E7C019C
:1001400031E0E31AF108892B69F0D2BE98B79160CB
:1001500098BF08B600FEFDCFC801FE010995E8165C
:10016000F90648F413BEDF91CF911F910F91FF90D4
:10017000EF90DF9008959701281B390BC901DFCF5D
:1001800023B7226023BF3EEF019740F032BF28B76C
:10019000216028BF08B600FEFDCFF6CF13BE08953C
:1001A000CF93DF93CDB7DEB728970FB6F894DEBFB5
:1001B0000FBECDBF9C01ABE5B1E00E94E7016983B2
:1001C0007A838B839C831D821E821F8218864D81B9
:1001D0005E816F81788589819A81AB81BC81481766
:1001E00059076A077B0760F48D819E81AF81B885CE
:1001F0000196A11DB11D8D839E83AF83B887E7CF84
:1002000028960FB6F894DEBF0FBECDBFDF91CF9119
:1002100008959C01F8941FBC1EBC9EB598609EBDBD
:100220009EB594609EBDA3E2B4EF0E94E70128EE64
:1002300033E040E050E00E94C5013BBD2ABD89B7D4
:10024000806189BF789408958FB9779BFECF089518
:10025000089508950895089508950895089580E0F3
:1002600008950F931F93CF93DF93EC0185E0FB017B
:10027000DE0101900D928A95E1F7EA81FB8101E0B0
:1002800010E0C8010C8002C0880F991F0A94E2F7A1
:100290009081892B8083E881F981C8010C8002C09C
:1002A000880F991F0A94E2F79081892B8083BD9A69
:1002B000BF9A6E9A6C9A689AC498E881F981C801CD
:1002C0000C8002C0880F991F0A94E2F780959081F4
:1002D0008923808380E40E94240180E00E9424011D
:1002E00080E00E942401E881F9810C8002C0000FA7
:1002F000111F0A94E2F78081082B0083DF91CF91D0
:100300001F910F910895EF92FF920F931F93CF9338
:10031000DF931F92CDB7DEB78C01DC01ED91FC912C
:100320001197EE24E394F12C970114960C9002C0DF
:10033000220F331F0A94E2F720958081282320831F
:1003400080E469830E94240189E00E94240169817C
:10035000862F0E942401D801ED91FC9111971496EB
:100360000C9002C0EE0CFF1C0A94E2F780818E29EB
:1003700080830F90DF91CF911F910F91FF90EF90AD
:1003800008950E942E010E943600A1E21A2EAA1B97
:10039000BB1BFD010DC0AA1FBB1FEE1FFF1FA21735
:1003A000B307E407F50720F0A21BB30BE40BF50B32
:1003B000661F771F881F991F1A9469F760957095BB
:1003C000809590959B01AC01BD01CF010895A29F3E
:1003D000B001B39FC001A39F700D811D1124911D19
:1003E000B29F700D811D1124911D0895F894FFCFC7
:00000001FF
