:100000000C9463000C943B060C9480000C948000CC
:100010000C9480000C9480000C9480000C94800060
:100020000C9480000C9480000C9480000C94800050
:100030000C9480000C9480000C9480000C94800040
:100040000C9480000C9480000C9480000C94800030
:100050000C9480000600FF0901A101150026FF0095
:1000600075089508090082020195200900B2020175
:10007000C0090222000101008010090400000103F0
:10008000000000092101010001223400070581035D
:1000900008000A1201100100000008C016DC05016A
:1000A0000001020001100364006500620075007326
:1000B00000730079000C036400610076006900732E
:1000C00000040309040011241FBECFE5D8E0DEBF01
:1000D000CDBF10E0A0E6B0E0EEEAF0E102C005908E
:1000E0000D92A636B107D9F720E0A6E6B0E001C030
:1000F0001D92AD39B207E1F70E9462070C945508D2
:100100000C9400009FE088E10FB6F894A89581BD9B
:100110000FBE91BD08959C0183B7816083BF83B7F3
:10012000826083BF85E02150310970F082BF98B7AB
:10013000916098BF08B600FCF6CFA89508B600FEFF
:10014000FCCF2150310990F713BE0895DF92EF9252
:10015000FF920F931F93CF93DF939C0193B791600E
:1001600093BF93B7926093BFE9012197232BE1F0EE
:100170007A018B0185E0D82ED2BE98B7916098BFE6
:1001800008B600FC04C0A89508B600FEFCCFC70165
:10019000F8010995C817D90738F09E01281B390BBB
:1001A000E9012197232B41F713BEDF91CF911F91D6
:1001B0000F91FF90EF90DF9008959C0183B78260CC
:1001C00083BF8EEF2150310970F082BF98B79160E4
:1001D00098BF08B600FCF6CFA89508B600FEFCCF85
:1001E0002150310990F713BE0895CF93DF93CDB717
:1001F000DEB728970FB6F894DEBF0FBECDBF9C01C7
:10020000ABE5B1E00E94A40769837A838B839C836A
:100210001D821E821F8218864D815E816F817885C6
:1002200089819A81AB81BC81481759076A077B078E
:10023000C8F4A8958D819E81AF81B8850196A11DD6
:10024000B11D8D839E83AF83B8874D815E816F81A1
:10025000788589819A81AB81BC81481759076A07E3
:100260007B0738F328960FB6F894DEBF0FBECDBFDC
:10027000DF91CF9108959B01AC01F8941FBC1EBC87
:100280008EB588608EBD8EB584608EBDA3E2B4EF5E
:100290000E94B30728EE33E040E050E00E9482075E
:1002A0003BBD2ABD89B7806189BF789408950895C0
:1002B0008FEF87BBC698C39A84BB81BB87BB1ABA32
:1002C00008958FEF87BBC39884BB81BB87BB8ABB74
:1002D0000895C39AC69A14BA11BA17BA1ABA0895E9
:1002E000FB01808185BB818182BB8281877088BB55
:1002F00021153105E9F0FA01240F351F81918BBBDF
:1003000085B352B347B390E0952BA0E0B0E0A42BA7
:100310000196A11DB11DAD016627772747BB492F67
:100320005A2F6B2F772742BB85BBE217F30731F7B4
:100330000895FB01808185BB818182BB82818770AA
:1003400088BB21153105E9F0FA01240F351F8BB365
:10035000819385B352B347B390E0952BA0E0B0E012
:10036000A42B0196A11DB11DAD016627772747BBC0
:10037000492F5A2F6B2F772742BB85BBE217F30714
:1003800031F70895CF93DF93CDB7DEB7C550D44092
:100390000FB6F894DEBF0FBECDBF4E018FEF881AA7
:1003A0008DEF980A2401FE0131963F015E01FFEFB7
:1003B000AF1AFBEFBF0A73018401CC24CA94D12C7D
:1003C0000E941E08B6010E946E07F80181938F01FA
:1003D000F70111927F010A151B0591F7F8011082B0
:1003E000118212821382FF24FA94F7BAC398F4BAE6
:1003F000F1BAF7BAFABA20E032E0A401B801CE01AE
:100400008B5F9B4F0E947001F7BAC698C39AF4BAEB
:10041000F1BAF7BA1ABA20E032E0AE014F5F5F4F8F
:10042000B801CE018B5F9B4F0E94990103C06814F5
:10043000790461F0F30191913F01F20181912F0163
:100440009817A9F3C598BF9AC79AFDCFC798BD9AC8
:10045000C59AFDCF80E00895F89411BA12BA0E94AF
:1004600015068C9A8CE291E00E948B008C9878940F
:100470000895089508950895A8950E94BF04FCCF9B
:100480000895CF93DF93EC0185E0FB01DE0101903D
:100490000D928A95E1F7EA81FB8181E090E09C0171
:1004A0000C8002C0220F331F0A94E2F73081232B05
:1004B0002083E881F9819C010C8002C0220F331F48
:1004C0000A94E2F73081232B2083E881F9810C80A4
:1004D00002C0880F991F0A94E2F7809590818923C2
:1004E0008083BE9ABF9A6E9A6C9A709A80E48FB994
:1004F000779BFECF1FB8779BFECF8FEF8FB9779B8F
:10050000FECFE881F98181E090E00C8002C0880F85
:10051000991F0A94E2F79081892B8083DF91CF9114
:100520000895CF93DF93EC0185E0FB01DE0101909C
:100530000D928A95E1F7EA81FB8181E090E09C01D0
:100540000C8002C0220F331F0A94E2F73081232B64
:100550002083E881F9819C010C8002C0220F331FA7
:100560000A94E2F73081232B2083E881F9810C8003
:1005700002C0880F991F0A94E2F780959081892321
:100580008083BD9ABF9A6E9A6C9A709A80E48FB9F4
:10059000779BFECF1FB8779BFECF1FB8779BFECF10
:1005A000E881F98181E090E00C8002C0880F991FFA
:1005B0000A94E2F79081892B8083DF91CF9108958F
:1005C000FC01A081B18121E030E0048002C0220F53
:1005D000331F0A94E2F720958C9128232C9381E411
:1005E0008FB9779BFECF89E08FB9779BFECF779B42
:1005F000FECF8FB1A081B18121E030E0048002C044
:10060000220F331F0A94E2F79C91292B2C93089513
:10061000FC01A081B18121E030E0048002C0220F02
:10062000331F0A94E2F720958C9128232C9380E4C1
:100630008FB9779BFECF89E08FB9779BFECF6FB9DB
:10064000779BFECFA081B18121E030E0C901048019
:1006500002C0880F991F0A94E2F79C91892B8C9312
:100660000895BE9ABF9A6E9A6C9A709A80E48FB978
:10067000779BFECF1FB8779BFECF8FEF8FB9779B0D
:10068000FECF0895BD9ABF9A6E9A6C9A709A80E4D4
:100690008FB9779BFECF1FB8779BFECF1FB8779B94
:1006A000FECF089581E48FB9779BFECF89E08FB9A3
:1006B000779BFECF779BFECF8FB1089580E48FB9F3
:1006C000779BFECF89E08FB9779BFECF6FB9779B81
:1006D000FECF0895CF93DF93CDB7DEB764970FB603
:1006E000F894DEBF0FBECDBF22E330E0398B288BFC
:1006F00081E390E09B8B8A8B1C8A3C872B879E87AB
:100700008D8781E08F87BE01605F7F4FCE010696A7
:100710000E949102BE01655F7F4FCE0101960E944B
:10072000910201E010E080E4D82E99E0E92E20E269
:10073000F22EEE81FF81C8010A8402C0880F991F42
:100740000A94E2F78095908189238083DFB8779BB4
:10075000FECFEFB8779BFECFFFB8779BFECFEE8141
:10076000FF81C8010A8402C0880F991F0A94E2F72A
:100770009081892B8083E981FA81C8010D8002C0B4
:10078000880F991F0A94E2F78095908189238083CE
:10079000DFB8779BFECFEFB8779BFECF1FB8779B74
:1007A000FECFE981FA81C8010D8002C0880F991F30
:1007B0000A94E2F79081892B808384EF91E00E9474
:1007C0008B00EE81FF81C8010A8402C0880F991F47
:1007D0000A94E2F78095908189238083DFB8779B24
:1007E000FECFEFB8779BFECF1FB8779BFECFEE8191
:1007F000FF81C8010A8402C0880F991F0A94E2F79A
:100800009081892B8083E981FA81C8010D8002C023
:10081000880F991F0A94E2F780959081892380833D
:10082000DFB8779BFECFEFB8779BFECFFFB8779B03
:10083000FECFE981FA81C8010D8002C0880F991F9F
:100840000A94E2F79081892B808384EF91E00E94E3
:100850008B006FCFCF93DF93EC01862F68830E94CC
:100860005D07BD9ABF9A6E9A6C9A709A80E48FB9B0
:10087000779BFECF1FB8779BFECF1FB8779BFECF2D
:100880008881DF91CF910C945D07CF93DF93EC01CA
:10089000862F68830E945D07BD9ABF9A6E9A6C9AF4
:1008A000709A80E48FB9779BFECF1FB8779BFECFFD
:1008B0001FB8779BFECF8881DF91CF910C945D07A5
:1008C0001F93CF93DF93EC0188810E945D0781E441
:1008D0008FB9779BFECF89E08FB9779BFECF779B4F
:1008E000FECF1FB188810E945D07812FDF91CF91DC
:1008F0001F9108950F931F93CF93DF931F92CDB74E
:10090000DEB78C01FC01808169830E945D0780E471
:100910008FB96981779BFECF89E08FB9779BFECF36
:100920006FB9779BFECFF80180810F90DF91CF9157
:100930001F910F910C945D07CF93C62F20917200E9
:1009400024FF19C03091730028E8232720937300F7
:100950002C2FFC01A4E7B0E081918D932150121659
:10096000DCF36C2F84E790E00E943706CC5FC093E5
:100970007200CF9108952AE520937200E9CFCF93BA
:10098000DF9380918300835087FD08C02091800011
:1009900090917F009D3279F11092830080916100E7
:1009A00084FF1CC0609160006F3FC1F0693008F0A7
:1009B0004FC0109260009091670088E8892780936B
:1009C00067006111A6C060E088E690E00E943706EB
:1009D000C4E08FEF80936000C093610094E180B326
:1009E000847131F49150D9F71092840010927E00F6
:1009F000DF91CF910895883079F6CCE0D0E0C21B2A
:100A0000D109C957DF4F83EC809367008AE5809353
:100A10006100109266008881807609F076C09A8124
:100A2000109270008981811187C01092710020E7B7
:100A300030E082E030938200209381009F81911109
:100A400004C09E81981708F4892F80936000A4CF7A
:100A50006850609360009091670088E889278093D0
:100A6000670020918100309182008091660086FDB0
:100A700039C0F90181918093680087E068E0DCE08B
:100A80009081909369008130E1F0918190936A00A8
:100A90008230B9F0928190936B00833091F0938112
:100AA00090936C00843069F0948190936D00853050
:100AB00041F0958190936E00863019F09681909365
:100AC0006F00E80FF11DCD2FF0938200E0938100BD
:100AD00088E690E00E943706DC3009F07ACFC093B8
:100AE00061007CCF68E0DCE0A8E6B0E0F901862F89
:100AF00094919D9331968150D9F7F90131968FEFFA
:100B0000860FE80FF11DCD2FDFCFCE010E942A0204
:100B100095CFD4E0D60F2091810030918200809152
:100B2000660086FDE1CFF9018191809368008FEF27
:100B3000860F09F0A5CFC5CF853071F0863039F129
:100B4000883081F08930B1F08A3081F08B30C1F08B
:100B500020E730E080E06ECF9093840020E730E023
:100B600080E068CF26E830E081E064CF20E730E025
:100B700081E060CF9093860020E730E080E05ACF9C
:100B80008BE48093730020E730E080E053CF8B81CB
:100B9000813069F0823069F1833009F18132B9F036
:100BA000823269F080E090E49093660047CF83E959
:100BB00090E0909382008093810082E1F4CF84E5FD
:100BC00090E0909382008093810084E3ECCF83E8EF
:100BD00090E0909382008093810089E0E4CF9111AE
:100BE00010C081EC90E0909382008093810084E0BB
:100BF000DACF81E790E0909382008093810082E2D7
:100C0000D2CF913051F0923069F685EA90E090931E
:100C100082008093810080E1C6CF85EB90E09093C5
:100C20008200809381008CE0BECF85B7826085BF53
:100C30008BB780648BBFE2E7F0E08BE481838AE5C9
:100C400080830895A82FB92F80E090E041E050EA1A
:100C5000609530E009C02D9182279795879510F017
:100C600084279527305EC8F36F5FA8F30895EADF05
:100C70008D939D930895CF93CFB7CF93DF93C39573
:100C8000849BE9F7849B0BC0849B09C0849B07C0AD
:100C9000849B05C0849B03C0849B01C08BC06F9361
:100CA000C0918000DD27C957DF4F2F9365E5849BF6
:100CB00003C02F916F91E6CF0F931F934F9320E0C6
:100CC00040E15F9300B3047104FB27F93F9350E0C8
:100CD0003BE039C0147140642F77012F5F5F1EC065
:100CE000406810B314712F7752501FC0406400B396
:100CF0002F770471D1F15F5F00C023C0406210B351
:100D00002F77147191F15F5F00C025C00471102727
:100D1000515012F45D5F0000115027952C3F10B325
:100D2000C8F614710127015027952C3FC8F64227B9
:100D3000499300B3047110274F73115027952C3F2E
:100D4000A8F64695469510B3147179F00127015025
:100D500027952C3F98F66B5A60F3315000B3B0F6EC
:100D600000C010E41ABF002719C03B503195C31BC7
:100D7000D04010E41ABF0881033C09F10B34F9F0AC
:100D800020917E001981110F1213EDCF4A81441F6B
:100D9000093651F10D3211F0013E29F7009385001B
:100DA0003F915F914F911F910F912F916F91CAB712
:100DB000C6FD65CFDF91CF91CFBFCF911895209120
:100DC0008500222369F310918300112391F53430BB
:100DD00092F13093830020937F00109180003BE0DC
:100DE000311B3093800027C00091830001300CF547
:100DF0000AE54F7049F43091610034FD1DC0009345
:100E00006100C7E6D0E01CC03091720034FD14C010
:100E100000937200C3E7D0E013C0052710E000C0C4
:100E2000000002BB1AC0052710E0221F1DC010E001
:100E300021C04AE502C032ED432FC4E1D0E032E0E8
:100E400011B31461949A02B311BB54E120E865E335
:100E500020FF052702BB279517951C3FF0F66695E6
:100E6000B8F7B1F720FF052702BB279517951C3F60
:100E7000D0F62795179517FF052700001C3F02BBEA
:100E8000B0F629913A9519F70B7E10918400110F55
:100E9000C651D04002BB11F010937E0010E41ABF7F
:100EA000006111B31B7E402F4B7E54E05A95F1F741
:100EB00002BB11BB42BB74CF0895089508950895F5
:100EC000089508950E9482000E942C020E94400210
:100ED0000E9457010E943C02A895FECF97FB072E67
:100EE00016F4009407D077FD09D00E94BE0707FCD6
:100EF00005D03EF4909581959F4F0895709561952A
:100F00007F4F0895A1E21A2EAA1BBB1BFD010DC045
:100F1000AA1FBB1FEE1FFF1FA217B307E407F507A9
:100F200020F0A21BB30BE40BF50B661F771F881F85
:100F3000991F1A9469F760957095809590959B011B
:100F4000AC01BD01CF010895A29FB001B39FC001C4
:100F5000A39F700D811D1124911DB29F700D811DE5
:100F60001124911D08950E94A407A59F900DB49F80
:100F7000900DA49F800D911D11240895AA1BBB1BE9
:100F800051E107C0AA1FBB1FA617B70710F0A61B89
:100F9000B70B881F991F5A95A9F780959095BC01AA
:100FA000CD0108958F929F92AF92BF92CF92DF9220
:100FB000EF92FF92CF93DF93EC01688179818A8170
:100FC0009B81611571058105910521F464E279ED3C
:100FD0008BE597E02DE133EF41E050E00E942E08D1
:100FE00049015A019B01AC01A7EAB1E40E94B30791
:100FF0006B017C01ACEEB4EFA50194010E94500896
:10100000DC01CB018C0D9D1DAE1DBF1DB7FF03C0C4
:101010000197A109B04888839983AA83BB839F77EE
:10102000DF91CF91FF90EF90DF90CF90BF90AF9086
:101030009F908F9008950E94D207089582E690E0D5
:101040000E94D2070895A0E0B0E0809362009093E0
:101050006300A0936400B09365000895052E97FB8C
:101060001EF400940E94450857FD07D00E94820795
:1010700007FC03D04EF40C944508509540953095EC
:1010800021953F4F4F4F5F4F0895909580957095F4
:1010900061957F4F8F4F9F4F0895B7FF0C94B30713
:0E10A0000E94B307821B930B0895F894FFCFB4
:0610AE00FF5A01000000E2
:00000001FF
