:100000000C942A000C943F000C943F000C943F0089
:100010000C943F000C943F000C943F000C943F0064
:100020000C943F000C943F000C943F000C943F0054
:100030000C943F000C943F000C943F000C943F0044
:100040000C943F000C943F000C943F000C943F0034
:100050000C943F0011241FBECFE5D8E0DEBFCDBF1A
:1000600010E0A0E6B0E0E2E7FAE002C005900D92F1
:10007000A436B107D9F70E9449040C9437050C94B3
:10008000000008958FEF87BBC698C39A84BB81BBDD
:1000900087BB1ABA08958FEF87BBC39884BB81BB17
:1000A00087BB8ABB0895C39AC69A14BA11BA17BA05
:1000B0001ABA0895FB01808185BB818182BB828150
:1000C000877088BB21153105E9F0FA01240F351F2F
:1000D00081918BBB85B352B347B390E0952BA0E0E1
:1000E000B0E0A42B0196A11DB11DAD0166277727B5
:1000F00047BB492F5A2F6B2F772742BB85BBE2178F
:10010000F30731F70895FB01808185BB818182BBB4
:100110008281877088BB21153105E9F0FA01240F2F
:10012000351F8BB3819385B352B347B390E0952BC2
:10013000A0E0B0E0A42B0196A11DB11DAD01662782
:10014000772747BB492F5A2F6B2F772742BB85BB99
:10015000E217F30731F70895CF93DF93CDB7DEB7FA
:10016000C550D4400FB6F894DEBF0FBECDBF00E03F
:1001700010E0EE24EA94F12C95EED92E0E940005B1
:10018000B7010E945004E1E0F2E0EC0FFD1FE00F28
:10019000F11F8083E1E0F0E0EC0FFD1FE00FF11FA5
:1001A000D0820F5F1F4F011522E0120739F7CF5F92
:1001B000DB4F188219821A821B82C150D4401FEF74
:1001C00017BBC39814BB11BB17BB1ABB20E032E0AE
:1001D000AE014F5F5D4FBE016F5F7B4FCE018B5F06
:1001E0009B4F0E945A0017BBC698C39A14BB11BB01
:1001F00017BB1ABA20E032E0AE014F5F5F4FBE017D
:100200006F5F7B4FCE018B5F9B4F0E94830080E02E
:1002100090E005C00196811522E09207A1F0E1E08F
:10022000F0E0EC0FFD1FE80FF91F3081E1E0F2E094
:10023000EC0FFD1FE80FF91F2081321759F3C59805
:10024000BF9AC79AFDCFC798BD9AC59AFDCF0895AA
:10025000CF93DF93EC0185E0FB01DE0101900D926D
:100260008A95E1F7EA81FB8181E090E09C010C80B6
:1002700002C0220F331F0A94E2F73081232B208320
:10028000E881F9819C010C8002C0220F331F0A947F
:10029000E2F73081232B2083E881F9810C8002C0B2
:1002A000880F991F0A94E2F78095908189238083B3
:1002B000BE9ABF9A6E9A6C9A709A80E48FB9779BB7
:1002C000FECF1FB8779BFECF8FEF8FB9779BFECF06
:1002D000E881F98181E090E00C8002C0880F991FCD
:1002E0000A94E2F79081892B8083DF91CF91089562
:1002F000CF93DF93EC0185E0FB01DE0101900D92CD
:100300008A95E1F7EA81FB8181E090E09C010C8015
:1003100002C0220F331F0A94E2F73081232B20837F
:10032000E881F9819C010C8002C0220F331F0A94DE
:10033000E2F73081232B2083E881F9810C8002C011
:10034000880F991F0A94E2F7809590818923808312
:10035000BD9ABF9A6E9A6C9A709A80E48FB9779B17
:10036000FECF1FB8779BFECF1FB8779BFECFE881EB
:10037000F98181E090E00C8002C0880F991F0A94F7
:10038000E2F79081892B8083DF91CF910895FC0162
:10039000A081B18121E030E0048002C0220F331F30
:1003A0000A94E2F720958C9128232C9381E48FB94D
:1003B000779BFECF89E08FB9779BFECF779BFECFEF
:1003C0008FB1A081B18121E030E0048002C0220F12
:1003D000331F0A94E2F79C91292B2C930895FC017A
:1003E000A081B18121E030E0048002C0220F331FE0
:1003F0000A94E2F720958C9128232C9380E48FB9FE
:10040000779BFECF89E08FB9779BFECF6FB9779B43
:10041000FECFA081B18121E030E0C901048002C09B
:10042000880F991F0A94E2F79C91892B8C93089569
:10043000BE9ABF9A6E9A6C9A709A80E48FB9779B35
:10044000FECF1FB8779BFECF8FEF8FB9779BFECF84
:100450000895BD9ABF9A6E9A6C9A709A80E48FB98B
:10046000779BFECF1FB8779BFECF1FB8779BFECF41
:10047000089581E48FB9779BFECF89E08FB9779B90
:10048000FECF779BFECF8FB1089580E48FB9779B25
:10049000FECF89E08FB9779BFECF6FB9779BFECFF8
:1004A0000895CF93DF93CDB7DEB764970FB6F89476
:1004B000DEBF0FBECDBF22E330E0398B288B81E356
:1004C00090E09B8B8A8B1C8A3C872B879E878D872D
:1004D00081E08F87BE01605F7F4FCE0106960E944C
:1004E0007801BE01655F7F4FCE0101960E947801C1
:1004F00001E010E080E4D82E99E0E92E20E2F22E0F
:10050000EE81FF81C8010A8402C0880F991F0A94F6
:10051000E2F78095908189238083DFB8779BFECFB7
:10052000EFB8779BFECFFFB8779BFECFEE81FF81C0
:10053000C8010A8402C0880F991F0A94E2F79081CB
:10054000892B8083E981FA81C8010D8002C0880F60
:10055000991F0A94E2F78095908189238083DFB800
:10056000779BFECFEFB8779BFECF1FB8779BFECF70
:10057000E981FA81C8010D8002C0880F991F0A9491
:10058000E2F79081892B808384EF91E00E948403BD
:10059000EE81FF81C8010A8402C0880F991F0A9466
:1005A000E2F78095908189238083DFB8779BFECF27
:1005B000EFB8779BFECF1FB8779BFECFEE81FF8110
:1005C000C8010A8402C0880F991F0A94E2F790813B
:1005D000892B8083E981FA81C8010D8002C0880FD0
:1005E000991F0A94E2F78095908189238083DFB870
:1005F000779BFECFEFB8779BFECFFFB8779BFECF00
:10060000E981FA81C8010D8002C0880F991F0A9400
:10061000E2F79081892B808384EF91E00E9484032C
:100620006FCFCF93DF93EC01862F68830E94440441
:10063000BD9ABF9A6E9A6C9A709A80E48FB9779B34
:10064000FECF1FB8779BFECF1FB8779BFECF888168
:10065000DF91CF910C944404CF93DF93EC01862F6C
:1006600068830E944404BD9ABF9A6E9A6C9A709AED
:1006700080E48FB9779BFECF1FB8779BFECF1FB862
:10068000779BFECF8881DF91CF910C9444041F9318
:10069000CF93DF93EC0188810E94440481E48FB9F9
:1006A000779BFECF89E08FB9779BFECF779BFECFFC
:1006B0001FB188810E944404812FDF91CF911F9147
:1006C00008950F931F93CF93DF931F92CDB7DEB79B
:1006D0008C01FC01808169830E94440480E48FB90D
:1006E0006981779BFECF89E08FB9779BFECF6FB989
:1006F000779BFECFF80180810F90DF91CF911F9102
:100700000F910C94440408959C0183B7816083BFCA
:1007100083B7826083BF85E02150310950F082BFEA
:1007200098B7916098BF08B600FEFDCF21503109FF
:10073000B0F713BE0895DF92EF92FF920F931F93CD
:10074000CF93DF939C0193B7916093BF93B792606F
:1007500093BFE9012197232BC1F07A018B0185E03A
:10076000D82ED2BE98B7916098BF08B600FEFDCFD4
:10077000C701F8010995C817D90738F09E01281B51
:10078000390BE9012197232B61F713BEDF91CF913C
:100790001F910F91FF90EF90DF9008959C0183B718
:1007A000826083BF8EEF2150310950F082BF98B72D
:1007B000916098BF08B600FEFDCF21503109B0F717
:1007C00013BE0895CF93DF93CDB7DEB728970FB64A
:1007D000F894DEBF0FBECDBF9C01ABE5B1E00E9437
:1007E000860469837A838B839C831D821E821F8289
:1007F00018864D815E816F81788589819A81AB8170
:10080000BC81481759076A077B07C0F48D819E8118
:10081000AF81B8850196A11DB11D8D839E83AF83E5
:10082000B8874D815E816F81788589819A81AB819E
:10083000BC81481759076A077B0740F328960FB613
:10084000F894DEBF0FBECDBFDF91CF9108959B011D
:10085000AC01F8941FBC1EBC8EB588608EBD8EB5F1
:1008600084608EBDA3E2B4EF0E94950428EE33E0CD
:1008700040E050E00E9464043BBD2ABD89B780611E
:1008800089BF789408950895089508950895089566
:1008900008950E9427010E9441000E94AC00FFCFF2
:1008A00097FB072E16F4009407D077FD09D00E941D
:1008B000A00407FC05D03EF4909581959F4F0895C4
:1008C000709561957F4F0895A1E21A2EAA1BBB1B5C
:1008D000FD010DC0AA1FBB1FEE1FFF1FA217B3070C
:1008E000E407F50720F0A21BB30BE40BF50B661F22
:1008F000771F881F991F1A9469F7609570958095E6
:1009000090959B01AC01BD01CF010895A29FB0015C
:10091000B39FC001A39F700D811D1124911DB29F33
:10092000700D811D1124911D08950E948604A59FBC
:10093000900DB49F900DA49F800D911D11240895DA
:10094000AA1BBB1B51E107C0AA1FBB1FA617B707F5
:1009500010F0A61BB70B881F991F5A95A9F7809511
:100960009095BC01CD0108958F929F92AF92BF9256
:10097000CF92DF92EF92FF92CF93DF93EC016881E9
:1009800079818A819B81611571058105910521F429
:1009900064E279ED8BE597E02DE133EF41E050E043
:1009A0000E94100549015A019B01AC01A7EAB1E47C
:1009B0000E9495046B017C01ACEEB4EFA50194019B
:1009C0000E943205DC01CB018C0D9D1DAE1DBF1DAB
:1009D000B7FF03C00197A109B04888839983AA8310
:1009E000BB839F77DF91CF91FF90EF90DF90CF9007
:1009F000BF90AF909F908F9008950E94B404089587
:100A000080E690E00E94B4040895A0E0B0E08093F6
:100A1000600090936100A0936200B093630008951A
:100A2000052E97FB1EF400940E94270557FD07D062
:100A30000E94640407FC03D04EF40C9427055095E3
:100A40004095309521953F4F4F4F5F4F08959095BA
:100A50008095709561957F4F8F4F9F4F0895B7FF99
:100A60000C9495040E949504821B930B0895F894AE
:020A7000FFCFB6
:040A7200010000007F
:00000001FF
