:100000000C947E000C94D0070C949D000C949D00E1
:100010000C949D000C949D000C949D000C949D00EC
:100020000C949D000C949D000C949D000C949D00DC
:100030000C949D000C949D000C949D000C949D00CC
:100040000C949D000C949D000C949D000C949D00BC
:100050000C949D000C949D000C949D000C949D00AC
:100060000C949D000C949D000C949D000C949D009C
:100070000C949D000C949D000C949D000C949D008C
:100080000C949D000C949D000C949D000600FFA113
:1000900001150026FF007508850195400901818240
:1000A000850209019182C009022200010100C010ED
:1000B00009040000010300000009210101000122E0
:1000C0001B00070581030800141201100100000045
:1000D00008C016DC05010001020001100364006580
:1000E00000620075007300730079000C0364006106
:1000F00000760069007300040309040011241FBE88
:10010000CFEFD0E4DEBFCDBF11E0A0E0B1E0E2EE82
:10011000F3E100E00BBF02C007900D92A830B107D9
:10012000D9F721E0A8E0B1E001C01D92A338B207E1
:10013000E1F70E94F1080C94EF090C94000081E0B3
:1001400008959FE088E10FB6F894A89581BD0FBE91
:1001500091BD08959C0183B7816083BF83B782609E
:1001600083BF85E02150310970F082BF98B791605C
:1001700098BF08B600FCF6CFA89508B600FEFCCFE5
:100180002150310990F713BE0895DF92EF92FF924C
:100190000F931F93CF93DF939C0193B7916093BF0D
:1001A00093B7926093BFE9012197232BE1F07A0185
:1001B0008B0185E0D82ED2BE98B7916098BF08B663
:1001C00000FC04C0A89508B600FEFCCFC701F801EA
:1001D0000995C817D90738F09E01281B390BE9018A
:1001E0002197232B41F713BEDF91CF911F910F91E0
:1001F000FF90EF90DF9008959C0183B7826083BFEA
:100200008EEF2150310970F082BF98B7916098BF8E
:1002100008B600FCF6CFA89508B600FEFCCF21502A
:10022000310990F713BE0895CF93DF93CDB7DEB7B2
:1002300028970FB6F894DEBF0FBECDBF9C01ABE58B
:10024000B1E00E94400969837A838B839C831D827D
:100250001E821F8218864D815E816F81788589811B
:100260009A81AB81BC81481759076A077B07C8F49C
:10027000A8958D819E81AF81B8850196A11DB11D84
:100280008D839E83AF83B8874D815E816F81788532
:1002900089819A81AB81BC81481759076A077B071E
:1002A00038F328960FB6F894DEBF0FBECDBFDF91AE
:1002B000CF9108959B01AC01F8941FBC1EBC8EB574
:1002C00088608EBD8EB584608EBDA3E2B4EF0E94BF
:1002D0004F0928EE33E040E050E00E941E093BBD8C
:1002E0002ABD89B7806189BF7894089508958FEFFA
:1002F00087BBC698C39A84BB81BB87BB1ABA0895D3
:100300008FEF87BBC39884BB81BB87BB8ABB089533
:10031000C39AC69A14BA11BA17BA1ABA0895FB0149
:10032000808185BB818182BB8281877088BB2115DA
:100330003105E9F0FA01240F351F81918BBB85B39C
:1003400052B347B390E0952BA0E0B0E0A42B019608
:10035000A11DB11DAD016627772747BB492F5A2F35
:100360006B2F772742BB85BBE217F30731F7089560
:10037000FB01808185BB818182BB8281877088BBC4
:1003800021153105E9F0FA01240F351F8BB3819354
:1003900085B352B347B390E0952BA0E0B0E0A42B17
:1003A0000196A11DB11DAD016627772747BB492FD7
:1003B0005A2F6B2F772742BB85BBE217F30731F724
:1003C0000895CF93DF93CDB7DEB7C550D4400FB6B5
:1003D000F894DEBF0FBECDBF4E018FEF881A8DEFB0
:1003E000980A2401FE0131963F015E01FFEFAF1A2A
:1003F000FBEFBF0A73018401CC24CA94D12C0E9464
:10040000B909B6010E940A09F80181938F01F70129
:1004100011927F010A151B0591F7F80110821182D4
:1004200012821382FF24FA94F7BAC398F4BAF1BA8D
:10043000F7BAFABA20E032E0A401B801CE018B5F2E
:100440009B4F0E948F01F7BAC698C39AF4BAF1BACB
:10045000F7BA1ABA20E032E0AE014F5F5F4FB80141
:10046000CE018B5F9B4F0E94B80103C068147904D2
:1004700061F0F30191913F01F20181912F019817F1
:10048000A9F3C598BF9AC79AFDCFC798BD9AC59AD8
:10049000FDCFEC018B01209721F4A8950E94AB05BC
:1004A000FCCFA8950E94AB05C801FE010995F3CFCA
:1004B0000895CF93DF93EC0185E0FB01DE0101900D
:1004C0000D928A95E1F7EA81FB8181E090E09C0141
:1004D0000C8002C0220F331F0A94E2F73081232BD5
:1004E0002083E881F9819C010C8002C0220F331F18
:1004F0000A94E2F73081232B2083E881F9810C8074
:1005000002C0880F991F0A94E2F780959081892391
:100510008083BE9ABF9A6E9A6C9A709A80E48FB963
:10052000779BFECF1FB8779BFECF8FEF8FB9779B5E
:10053000FECFE881F98181E090E00C8002C0880F55
:10054000991F0A94E2F79081892B8083DF91CF91E4
:100550000895CF93DF93EC0185E0FB01DE0101906C
:100560000D928A95E1F7EA81FB8181E090E09C01A0
:100570000C8002C0220F331F0A94E2F73081232B34
:100580002083E881F9819C010C8002C0220F331F77
:100590000A94E2F73081232B2083E881F9810C80D3
:1005A00002C0880F991F0A94E2F7809590818923F1
:1005B0008083BD9ABF9A6E9A6C9A709A80E48FB9C4
:1005C000779BFECF1FB8779BFECF1FB8779BFECFE0
:1005D000E881F98181E090E00C8002C0880F991FCA
:1005E0000A94E2F79081892B8083DF91CF9108955F
:1005F000FC01A081B18121E030E0048002C0220F23
:10060000331F0A94E2F720958C9128232C9381E4E0
:100610008FB9779BFECF89E08FB9779BFECF779B11
:10062000FECF8FB1A081B18121E030E0048002C013
:10063000220F331F0A94E2F79C91292B2C930895E3
:10064000FC01A081B18121E030E0048002C0220FD2
:10065000331F0A94E2F720958C9128232C9380E491
:100660008FB9779BFECF89E08FB9779BFECF6FB9AB
:10067000779BFECFA081B18121E030E0C9010480E9
:1006800002C0880F991F0A94E2F79C91892B8C93E2
:100690000895BE9ABF9A6E9A6C9A709A80E48FB948
:1006A000779BFECF1FB8779BFECF8FEF8FB9779BDD
:1006B000FECF0895BD9ABF9A6E9A6C9A709A80E4A4
:1006C0008FB9779BFECF1FB8779BFECF1FB8779B64
:1006D000FECF089581E48FB9779BFECF89E08FB973
:1006E000779BFECF779BFECF8FB1089580E48FB9C3
:1006F000779BFECF89E08FB9779BFECF6FB9779B51
:10070000FECF0895CF93DF93CDB7DEB764970FB6D2
:10071000F894DEBF0FBECDBF22E330E0398B288BCB
:1007200081E390E09B8B8A8B1C8A3C872B879E877A
:100730008D8781E08F87BE01605F7F4FCE01069677
:100740000E94A902BE01655F7F4FCE0101960E9403
:10075000A90201E010E080E4D82E99E0E92E20E221
:10076000F22EEE81FF81C8010A8402C0880F991F12
:100770000A94E2F78095908189238083DFB8779B84
:10078000FECFEFB8779BFECFFFB8779BFECFEE8111
:10079000FF81C8010A8402C0880F991F0A94E2F7FA
:1007A0009081892B8083E981FA81C8010D8002C084
:1007B000880F991F0A94E2F780959081892380839E
:1007C000DFB8779BFECFEFB8779BFECF1FB8779B44
:1007D000FECFE981FA81C8010D8002C0880F991F00
:1007E0000A94E2F79081892B808384EF91E00E9444
:1007F000AA00EE81FF81C8010A8402C0880F991FF8
:100800000A94E2F78095908189238083DFB8779BF3
:10081000FECFEFB8779BFECF1FB8779BFECFEE8160
:10082000FF81C8010A8402C0880F991F0A94E2F769
:100830009081892B8083E981FA81C8010D8002C0F3
:10084000880F991F0A94E2F780959081892380830D
:10085000DFB8779BFECFEFB8779BFECFFFB8779BD3
:10086000FECFE981FA81C8010D8002C0880F991F6F
:100870000A94E2F79081892B808384EF91E00E94B3
:10088000AA006FCFFC01608382B3682B62BBC39860
:10089000C39ABD9ABF9A6E9A6C9A709A80E48FB987
:1008A000779BFECF1FB8779BFECF1FB8779BFECFFD
:1008B00082B3876082BBC398C39A0895FC016083AA
:1008C00082B3682B62BBC398C39ABD9ABF9A6E9AD3
:1008D0006C9A709A80E48FB9779BFECF1FB8779B94
:1008E000FECF1FB8779BFECF82B3876082BBC398D1
:1008F000C39A0895FC0192B38081892B82BBC3986F
:10090000C39A81E48FB9779BFECF89E08FB9779B3B
:10091000FECF779BFECF8FB192B3976092BBC39807
:10092000C39A0895FC0192B38081892B82BBC3983E
:10093000C39A80E48FB9779BFECF89E08FB9779B0C
:10094000FECF6FB9779BFECF82B3876082BBC3981F
:10095000C39A089540914A01461708F4642F5091B4
:100960004B01662389F0A52FB0E0A75FBE4FFC01C5
:100970002FEF260F30E02F5F3F4F280F391F9D913B
:100980009193E217F307D9F7560F50934B01461B8B
:1009900040934A01862F089540914A01442329F14A
:1009A000461708F150914B01662389F0FC01A52FF1
:1009B000B0E0A75FBE4F2FEF260F30E02F5F3F4F15
:1009C000280F391F81918D93E217F307D9F7560F3E
:1009D00050934B01461B40934A0181E0411101C0F5
:1009E000089580E00895642FDDCF81E0089510928E
:1009F0004B018EE380934A018FEF9FEF0895809320
:100A00000801811101C00895F89411BA12BA0E9428
:100A1000AA078C9A8CE291E00E94AA008C987894A4
:100A20000895089508951F93CF93DF93C0E011E4D4
:100A3000C13440F5A8950E943A069091580194FF60
:100A4000F9CFD12FDC1BD93028F58C2F90E06D2FFA
:100A5000875F9E4F0E941706CD0FC13448F38091E7
:100A6000580184FF0BC0D0E0C75FDE4F60E0CE01CD
:100A70000E9417068091580184FDF8CFDF91CF9135
:100A80001F910895A8950E943A068091580184FF0D
:100A9000E6CFD7CFD8E0D9CF1F93CF93DF93209164
:100AA0000801211104C0DF91CF911F910895FC012D
:100AB00001900020E9F731979F01281B390B41E095
:100AC000420F51E05093090110920A0140930B012B
:100AD000442359F0DC01ECE0F1E03327235F3E4F83
:100AE0008D918193E217F307D9F7C0E011E4C13487
:100AF00040F5A8950E943A069091580194FFF9CFCD
:100B0000D12FDC1BD93028F58C2F90E06D2F875F1B
:100B10009E4F0E941706CD0FC13448F380915801B3
:100B200084FFC1CFD0E0C75FDE4F60E0CE010E94FE
:100B300017068091580184FDF8CFDF91CF911F9166
:100B40000895A8950E943A068091580184FFE6CF47
:100B5000D7CFD8E0D9CF0C943A06882483948CE080
:100B6000982E98E6A92E25E6B22E1CE60FE630E276
:100B7000C32E47E7D42E52E7E52E61E4F62E03C0DC
:100B80000E943A06A895809108018823C9F38092B3
:100B9000090110920A0190920B01A0920C01B092EF
:100BA0000D0110930E0110930F0100931001C092DC
:100BB0001101D092120100931301E09214011093DD
:100BC000150184E68093160110921701C0E0C1342C
:100BD00030F5A8950E943A069091580194FFF9CFFC
:100BE000DF2DDC1BD93008F0D8E08C2F90E06D2F82
:100BF000875F9E4F0E941706CD0FC13440F380914E
:100C0000580184FFBDCFD0E0C75FDE4F60E0CE016A
:100C10000E9417068091580184FDF8CFB1CFA895A6
:100C20000E943A068091580184FFE9CFD9CFCF9333
:100C3000C62F2091580124FF19C03091590128E88E
:100C40002327209359012C2FFC01AAE5B1E08191C3
:100C50008D9321501216DCF36C2F8AE591E00E94EF
:100C6000CC07CC5FC0935801CF9108952AE520931B
:100C70005801E9CFCF93DF9380916901835087FDBD
:100C800008C020916601909165019D32E1F11092BA
:100C900069018091020184FF29C080910001909137
:100CA00001018F3F2FEF920709F18930910508F07C
:100CB00061C0109201011092000130914D0128E8AD
:100CC000232720934D01682FC4E0009709F0AAC0A4
:100CD0008EE491E00E94CC07CC3031F08FEF9FEF93
:100CE0009093010180930001C093020194E180B3CD
:100CF000847131F49150D9F710926A011092640115
:100D0000DF91CF910895883009F0C1CFCCE0D0E0D9
:100D1000C21BD109C359DE4F83EC80934D018AE594
:100D20008093020110924C018881982F907609F0EF
:100D300075C02A81109256019981911184C08F71DA
:100D400019F481E0809356011092570126E531E0B5
:100D500082E090E030936801209367014E815F81CB
:100D60009C014817590708F49A0130930101209318
:100D700000018DCF0897909301018093000190911D
:100D80004D0188E8892780934D01209167013091BA
:100D9000680180914C0186FD2FC0F90181918093FB
:100DA0004E0187E068E0CCE0908190934F01813064
:100DB000E1F09181909350018230B9F0928190934B
:100DC0005101833091F0938190935201843069F006
:100DD000948190935301853041F095819093540113
:100DE000863019F0968190935501E80FF11DF0932C
:100DF0006801E09367016CCF68E0CCE0AEE4B1E05D
:100E0000F901862F94919D9331968150D9F7F9017C
:100E100031968FEF860FE80FF11DE9CFCE010E94CA
:100E2000F7049CCFC80F2091670130916801409171
:100E30004C0146FDE3CFF901919190934E01815011
:100E400009F0B2CFD2CF953079F0963069F1983071
:100E500091F09930D1F09A3099F09B30E9F026E585
:100E600031E080E090E076CF20936A0126E531E022
:100E700080E090E06FCF2CE631E081E090E06ACF37
:100E800026E531E081E090E065CF20936C0126E516
:100E900031E080E090E05ECF8BE48093590126E55D
:100EA00031E080E090E056CF8B81813071F082306C
:100EB00091F1833029F18132D1F0823279F080E0F2
:100EC00090E020E420934C0149CF89EC90E090938E
:100ED00068018093670182E190E0F3CF8CE890E0B5
:100EE00090936801809367018BE190E0EACF89EBF2
:100EF00090E0909368018093670189E090E0E1CFF2
:100F0000211112C087EF90E09093680180936701F0
:100F100084E090E0D6CF87EA90E0909368018093D8
:100F2000670182E290E0CDCF213059F0223039F6CE
:100F30008BED90E0909368018093670180E190E0F1
:100F4000C0CF8BEE90E090936801809367018CE0B6
:100F500090E0B7CF85B7826085BF8BB780648BBFC9
:100F6000E8E5F1E08BE481838AE580830895A82F8A
:100F7000B92F80E090E041E050EA609530E009C090
:100F80002D9182279795879510F084279527305EBD
:100F9000C8F36F5FA8F30895EADF8D939D930895DA
:100FA000CF93CFB7CF93DF93C395849BE9F7849B0F
:100FB0000BC0849B09C0849B07C0849B05C0849B95
:100FC00003C0849B01C08BC06F93C0916601DD2775
:100FD000C359DE4F2F9365E5849B03C02F916F911A
:100FE000E6CF0F931F934F9320E040E15F9300B350
:100FF000047104FB27F93F9350E03BE039C01471C2
:1010000040642F77012F5F5F1EC0406810B31471DA
:101010002F7752501FC0406400B32F770471D1F175
:101020005F5F00C023C0406210B32F77147191F14D
:101030005F5F00C025C004711027515012F45D5F3E
:101040000000115027952C3F10B3C8F614710127EA
:10105000015027952C3FC8F64227499300B30471ED
:1010600010274F73115027952C3FA8F646954695AB
:1010700010B3147179F00127015027952C3F98F691
:101080006B5A60F3315000B3B0F600C010E41ABFE1
:10109000002719C03B503195C31BD04010E41ABF44
:1010A0000881033C09F10B34F9F0209164011981A6
:1010B000110F1213EDCF4A81441F093651F10D3241
:1010C00011F0013E29F700936B013F915F914F9121
:1010D0001F910F912F916F91CAB7C6FD65CFDF9118
:1010E000CF91CFBFCF91189520916B01222369F347
:1010F00010916901112391F5343092F13093690117
:1011000020936501109166013BE0311B309366012D
:1011100027C00091690101300CF50AE54F7049F4D0
:101120003091020134FD1DC000930201CDE4D1E0F5
:101130001CC03091580134FD14C000935801C9E51A
:10114000D1E013C0052710E000C0000002BB1AC0A8
:10115000052710E0221F1DC010E021C04AE502C093
:1011600032ED432FC4E1D0E032E011B31461949A20
:1011700002B311BB54E120E865E320FF052702BB61
:10118000279517951C3FF0F66695B8F7B1F720FF45
:10119000052702BB279517951C3FD0F62795179575
:1011A00017FF052700001C3F02BBB0F629913A95B6
:1011B00019F70B7E10916A01110FC651D04002BB86
:1011C00011F01093640110E41ABF006111B31B7E8B
:1011D000402F4B7E54E05A95F1F702BB11BB42BB46
:1011E00074CF0E94A100509A519A529A239A2B9A36
:1011F0008BB187608BB92B982B9A0E9458020E9462
:10120000760160E070E08FE990E00E94490280E0A2
:1012100090E0089597FB072E16F4009407D077FD11
:1012200009D00E945A0907FC05D03EF4909581959B
:101230009F4F0895709561957F4F0895A1E21A2EF2
:10124000AA1BBB1BFD010DC0AA1FBB1FEE1FFF1F6A
:10125000A217B307E407F50720F0A21BB30BE40BBA
:10126000F50B661F771F881F991F1A9469F7609501
:101270007095809590959B01AC01BD01CF010895BB
:10128000A29FB001B39FC001A39F700D811D1124C7
:10129000911DB29F700D811D1124911D08950E9412
:1012A0004009A59F900DB49F900DA49F800D911DA6
:1012B00011240895AA1BBB1B51E107C0AA1FBB1F25
:1012C000A617B70710F0A61BB70B881F991F5A95D2
:1012D000A9F780959095BC01CD0108958F929F92BA
:1012E000AF92BF92CF92DF92EF92FF92CF93DF93B4
:1012F000EC01688179818A819B8161157105810585
:10130000910521F464E279ED8BE597E02DE133EF6F
:1013100041E050E00E94C80949015A019B01AC011B
:10132000A7EAB1E40E944F096B017C01ACEEB4EF77
:10133000A50194010E94EA09DC01CB018C0D9D1DE1
:10134000AE1DBF1DB7FF03C00197A109B048888338
:101350009983AA83BB839F77DF91CF91FF90EF9012
:10136000DF90CF90BF90AF909F908F9008950C9496
:101370006E0983E091E00C946E09A0E0B0E08093E8
:10138000030190930401A0930501B0930601089511
:10139000052E97FB1EF400940E94DF0957FD07D02D
:1013A0000E941E0907FC03D04EF40C94DF095095EF
:1013B0004095309521953F4F4F4F5F4F0895909541
:1013C0008095709561957F4F8F4F9F4F0895B7FF20
:1013D0000C944F090E944F09821B930B0895F894B7
:0213E000FFCF3D
:0813E200FFFF5A0100000000AA
:00000001FF
