:100000000C9462000C94C3070C947F000C947F0046
:100010000C947F000C947F000C947F000C947F0064
:100020000C947F000C947F000C947F000C947F0054
:100030000C947F000C947F000C947F000C947F0044
:100040000C947F000C947F000C947F000C947F0034
:100050000C947F000600FFA101150026FF00750823
:100060008501954009018182850209019182C009BB
:1000700002220001010080100904000001030000B9
:1000800000092101010001221B000705810308006E
:10009000141201100100000008C016DC0501000167
:1000A00002000110036400650062007500730073B4
:1000B0000079000C0364006100760069007300049D
:1000C0000309040011241FBECFE5D8E0DEBFCDBF79
:1000D00010E0A0E6B0E0EAEEF3E102C005900D9278
:1000E000AA3FB107D9F721E0AAEFB0E001C01D9205
:1000F000A537B207E1F70E94EA080C94F3090C94C3
:10010000000081E008959FE088E10FB6F894A8957B
:1001100081BD0FBE91BD08959C0183B7816083BFEF
:1001200083B7826083BF85E02150310970F082BFC0
:1001300098B7916098BF08B600FCF6CFA89508B6AE
:1001400000FEFCCF2150310990F713BE0895DF92D5
:10015000EF92FF920F931F93CF93DF939C0193B77E
:10016000916093BF93B7926093BFE9012197232BCE
:10017000E1F07A018B0185E0D82ED2BE98B791606C
:1001800098BF08B600FC04C0A89508B600FEFCCFD6
:10019000C701F8010995C817D90738F09E01281B37
:1001A000390BE9012197232B41F713BEDF91CF9142
:1001B0001F910F91FF90EF90DF9008959C0183B7FE
:1001C000826083BF8EEF2150310970F082BF98B7F3
:1001D000916098BF08B600FCF6CFA89508B600FE5F
:1001E000FCCF2150310990F713BE0895CF93DF93D0
:1001F000CDB7DEB728970FB6F894DEBF0FBECDBFE0
:100200009C01ABE5B1E00E94420969837A838B834C
:100210009C831D821E821F8218864D815E816F81A4
:10022000788589819A81AB81BC81481759076A0713
:100230007B07C8F4A8958D819E81AF81B885019612
:10024000A11DB11D8D839E83AF83B8874D815E81D3
:100250006F81788589819A81AB81BC814817590764
:100260006A077B0738F328960FB6F894DEBF0FBEF7
:10027000CDBFDF91CF9108959B01AC01F8941FBCD5
:100280001EBC8EB588608EBD8EB584608EBDA3E227
:10029000B4EF0E94510928EE33E040E050E00E94A4
:1002A00020093BBD2ABD89B7806189BF7894089534
:1002B00008958FEF87BBC698C39A84BB81BB87BB69
:1002C0001ABA08958FEF87BBC39884BB81BB87BBE5
:1002D0008ABB0895C39AC69A14BA11BA17BA1ABA41
:1002E0000895FB01808185BB818182BB82818770FB
:1002F00088BB21153105E9F0FA01240F351F8191E2
:100300008BBB85B352B347B390E0952BA0E0B0E030
:10031000A42B0196A11DB11DAD016627772747BB10
:10032000492F5A2F6B2F772742BB85BBE217F30764
:1003300031F70895FB01808185BB818182BB828179
:10034000877088BB21153105E9F0FA01240F351FAC
:100350008BB3819385B352B347B390E0952BA0E064
:10036000B0E0A42B0196A11DB11DAD016627772732
:1003700047BB492F5A2F6B2F772742BB85BBE2170C
:10038000F30731F70895CF93DF93CDB7DEB7C550AC
:10039000D4400FB6F894DEBF0FBECDBF4E018FEF35
:1003A000881A8DEF980A2401FE0131963F015E0103
:1003B000FFEFAF1AFBEFBF0A73018401CC24CA948C
:1003C000D12C0E94BC09B6010E940C09F80181934E
:1003D0008F01F70111927F010A151B0591F7F801B2
:1003E0001082118212821382FF24FA94F7BAC39802
:1003F000F4BAF1BAF7BAFABA20E032E0A401B801CF
:10040000CE018B5F9B4F0E947101F7BAC698C39AC9
:10041000F4BAF1BAF7BA1ABA20E032E0AE014F5F8F
:100420005F4FB801CE018B5F9B4F0E949A0103C0C2
:100430006814790461F0F30191913F01F201819117
:100440002F019817A9F3C598BF9AC79AFDCFC798EF
:10045000BD9AC59AFDCF40913C01461708F4642F20
:1004600050913D01662389F0A52FB0E0A550BF4F04
:10047000FC012FEF260F30E02F5F3F4F280F391F71
:100480009D919193E217F307D9F7560F50933D01D1
:10049000461B40933C01862F089540913C01442324
:1004A00029F1461708F150913D01662389F0FC01BE
:1004B000A52FB0E0A550BF4F2FEF260F30E02F5FE4
:1004C0003F4F280F391F81918D93E217F307D9F71A
:1004D000560F50933D01461B40933C0181E0411172
:1004E00001C0089580E00895642FDDCF81E0089574
:1004F0008F9A979909C0979A10923D018EE3809345
:100500003C018FEF9FEF0895979810923D018EE385
:1005100080933C018FEF9FEF08958093FA00811143
:1005200001C00895F89411BA12BA0E949D078C9ADE
:100530008CE291E00E948C008C9878940895089544
:1005400008951F93CF93DF93C0E011E4C13440F5C9
:10055000A8950E94330690914A0194FFF9CFD12FBC
:10056000DC1BD93028F58C2F90E06D2F85509F4FE4
:100570000E941006CD0FC13448F380914A0184FFD8
:100580000BC0D0E0C550DF4F60E0CE010E941006E6
:1005900080914A0184FDF8CFDF91CF911F9108959A
:1005A000A8950E94330680914A0184FFE6CFD7CFF9
:1005B000D8E0D9CF1F93CF93DF932091FA00211178
:1005C00004C0DF91CF911F910895FC01019000209C
:1005D000E9F731979F01281B390B41E0420F51E0A9
:1005E0005093FB001092FC004093FD00442359F00F
:1005F000DC01EEEFF0E0332721503F4F8D918193E6
:10060000E217F307D9F7C0E011E4C13440F5A8952B
:100610000E94330690914A0194FFF9CFD12FDC1B41
:10062000D93028F58C2F90E06D2F85509F4F0E9478
:100630001006CD0FC13448F380914A0184FFC1CF29
:10064000D0E0C550DF4F60E0CE010E9410068091DF
:100650004A0184FDF8CFDF91CF911F910895A895AD
:100660000E94330680914A0184FFE6CFD7CFD8E0BD
:10067000D9CF0C943306882483948CE0982E98E686
:10068000A92E25E6B22E1CE60FE630E2C32E47E780
:10069000D42E52E7E52E61E4F62E03C00E94330605
:1006A000A8958091FA008823C9F38092FB001092EC
:1006B000FC009092FD00A092FE00B092FF0010930B
:1006C00000011093010100930201C0920301D09236
:1006D000040100930501E09206011093070184E6EE
:1006E0008093080110920901C0E0C13430F5A8954B
:1006F0000E94330690914A0194FFF9CFDF2DDC1B55
:10070000D93008F0D8E08C2F90E06D2F85509F4FA6
:100710000E941006CD0FC13440F380914A0184FF3E
:10072000BDCFD0E0C550DF4F60E0CE010E94100683
:1007300080914A0184FDF8CFB1CFA8950E9433067D
:1007400080914A0184FFE9CFD9CFEC018B0120973A
:1007500021F4A8950E943903FCCFA8950E94390383
:10076000C801FE010995F3CF0895CF93DF93EC0103
:1007700085E0FB01DE0101900D928A95E1F7EA81A7
:10078000FB8181E090E09C010C8002C0220F331FAE
:100790000A94E2F73081232B2083E881F9819C01C0
:1007A0000C8002C0220F331F0A94E2F73081232B02
:1007B0002083E881F9810C8002C0880F991F0A9478
:1007C000E2F78095908189238083BE9ABF9A6E9AC2
:1007D0006C9A709A80E48FB9779BFECF1FB8779B95
:1007E000FECF8FEF8FB9779BFECFE881F98181E053
:1007F00090E00C8002C0880F991F0A94E2F7908164
:10080000892B8083DF91CF910895CF93DF93EC0103
:1008100085E0FB01DE0101900D928A95E1F7EA8106
:10082000FB8181E090E09C010C8002C0220F331F0D
:100830000A94E2F73081232B2083E881F9819C011F
:100840000C8002C0220F331F0A94E2F73081232B61
:100850002083E881F9810C8002C0880F991F0A94D7
:10086000E2F78095908189238083BD9ABF9A6E9A22
:100870006C9A709A80E48FB9779BFECF1FB8779BF4
:10088000FECF1FB8779BFECFE881F98181E090E031
:100890000C8002C0880F991F0A94E2F79081892B7F
:1008A0008083DF91CF910895FC01A081B18121E087
:1008B00030E0048002C0220F331F0A94E2F7209533
:1008C0008C9128232C9381E48FB9779BFECF89E00C
:1008D0008FB9779BFECF779BFECF8FB1A081B1817F
:1008E00021E030E0048002C0220F331F0A94E2F7B7
:1008F0009C91292B2C930895FC01A081B18121E0CA
:1009000030E0048002C0220F331F0A94E2F72095E2
:100910008C9128232C9380E48FB9779BFECF89E0BC
:100920008FB9779BFECF6FB9779BFECFA081B18146
:1009300021E030E0C901048002C0880F991F0A94A9
:10094000E2F79C91892B8C930895BE9ABF9A6E9A78
:100950006C9A709A80E48FB9779BFECF1FB8779B13
:10096000FECF8FEF8FB9779BFECF0895BD9ABF9AC8
:100970006E9A6C9A709A80E48FB9779BFECF1FB8FD
:10098000779BFECF1FB8779BFECF089581E48FB988
:10099000779BFECF89E08FB9779BFECF779BFECF09
:1009A0008FB1089580E48FB9779BFECF89E08FB92E
:1009B000779BFECF6FB9779BFECF0895CF93DF93E0
:1009C000CDB7DEB764970FB6F894DEBF0FBECDBFCC
:1009D00022E330E0398B288B81E390E09B8B8A8B7C
:1009E0001C8A3C872B879E878D8781E08F87BE017D
:1009F000605F7F4FCE0106960E940504BE01655FD1
:100A00007F4FCE0101960E94050401E010E080E4D2
:100A1000D82E99E0E92E20E2F22EEE81FF81C80166
:100A20000A8402C0880F991F0A94E2F7809590818A
:100A300089238083DFB8779BFECFEFB8779BFECF0B
:100A4000FFB8779BFECFEE81FF81C8010A8402C008
:100A5000880F991F0A94E2F79081892B8083E9819E
:100A6000FA81C8010D8002C0880F991F0A94E2F72D
:100A70008095908189238083DFB8779BFECFEFB884
:100A8000779BFECF1FB8779BFECFE981FA81C80123
:100A90000D8002C0880F991F0A94E2F79081892B7C
:100AA000808384EF91E00E948C00EE81FF81C80179
:100AB0000A8402C0880F991F0A94E2F780959081FA
:100AC00089238083DFB8779BFECFEFB8779BFECF7B
:100AD0001FB8779BFECFEE81FF81C8010A8402C058
:100AE000880F991F0A94E2F79081892B8083E9810E
:100AF000FA81C8010D8002C0880F991F0A94E2F79D
:100B00008095908189238083DFB8779BFECFEFB8F3
:100B1000779BFECFFFB8779BFECFE981FA81C801B2
:100B20000D8002C0880F991F0A94E2F79081892BEB
:100B3000808384EF91E00E948C006FCFCF93DF938E
:100B4000EC01862F68830E94E508BD9ABF9A6E9AD1
:100B50006C9A709A80E48FB9779BFECF1FB8779B11
:100B6000FECF1FB8779BFECF8881DF91CF910C9489
:100B7000E508CF93DF93EC01862F68830E94E50898
:100B8000BD9ABF9A6E9A6C9A709A80E48FB9779BDF
:100B9000FECF1FB8779BFECF1FB8779BFECF888113
:100BA000DF91CF910C94E5081F93CF93DF93EC0175
:100BB00088810E94E50881E48FB9779BFECF89E0A8
:100BC0008FB9779BFECF779BFECF1FB188810E94A4
:100BD000E508812FDF91CF911F9108950F931F9307
:100BE000CF93DF931F92CDB7DEB78C01FC018081DC
:100BF00069830E94E50880E48FB96981779BFECF05
:100C000089E08FB9779BFECF6FB9779BFECFF80154
:100C100080810F90DF91CF911F910F910C94E50887
:100C2000CF93C62F20914A0124FF19C030914B0168
:100C300028E8232720934B012C2FFC01ACE4B1E0E2
:100C400081918D9321501216DCF36C2F8CE491E08E
:100C50000E94BF07CC5FC0934A01CF9108952AE557
:100C600020934A01E9CFCF93DF9380915B018350BA
:100C700087FD08C020915801909157019D32E1F104
:100C800010925B018091620084FF29C08091600016
:100C9000909161008F3F2FEF920709F18930910504
:100CA00008F05BC0109261001092600030913F012B
:100CB00028E8232720933F01682FC4E0009709F01C
:100CC000A4C080E491E00E94BF07CC3031F08FEFE8
:100CD0009FEF9093610080936000C093620094E165
:100CE00080B3847131F49150D9F710925C01109265
:100CF0005601DF91CF910895883009F0C1CFCCE043
:100D0000D0E0C21BD109C15ADE4F83EC80933F0172
:100D10008AE58093620010923E018881807609F016
:100D200070C09A8110924801898181117FC0109210
:100D3000490128E431E082E090E030935A012093A9
:100D400059014E815F819C014817590708F49A01A7
:100D5000309361002093600093CF089790936100D7
:100D60008093600090913F0188E8892780933F013C
:100D70002091590130915A0180913E0186FD2FC08A
:100D8000F90181918093400187E0CCE068E0908197
:100D9000909341018130E1F0918190934201823042
:100DA000B9F0928190934301833091F093819093B5
:100DB0004401843069F0948190934501853041F07D
:100DC000958190934601863019F096819093470162
:100DD000E80FF11DF0935A01E093590172CFCCE076
:100DE00068E0A0E4B1E0F901862F94919D933196DB
:100DF0008150D9F7F90131968FEF860FE80FF11D79
:100E0000E9CFCE010E9478029CCFC80F20915901F2
:100E100030915A0140913E0146FDE3CFF901919195
:100E200090934001815009F0B2CFD2CF853079F054
:100E3000863069F1883091F08930D1F08A3099F0AC
:100E40008B30E9F028E431E080E090E076CF9093B9
:100E50005C0128E431E080E090E06FCF2EE531E0E6
:100E600081E090E06ACF28E431E081E090E065CF56
:100E700090935E0128E431E080E090E05ECF8BE467
:100E800080934B0128E431E080E090E056CF8B81E5
:100E9000813071F0823091F1833029F18132D1F0CB
:100EA000823279F080E090E020E420933E0149CF47
:100EB00081E990E090935A018093590182E190E09A
:100EC000F3CF84E590E090935A01809359018BE130
:100ED00090E0EACF81E890E090935A018093590125
:100EE00089E090E0E1CF911112C08FEB90E09093F8
:100EF0005A018093590184E090E0D6CF8FE690E0CC
:100F000090935A018093590182E290E0CDCF9130C5
:100F100059F0923039F683EA90E090935A01809329
:100F2000590180E190E0C0CF83EB90E090935A01AB
:100F3000809359018CE090E0B7CF85B7826085BF80
:100F40008BB780648BBFEAE4F1E08BE481838AE5B0
:100F500080830895A82FB92F80E090E041E050EA07
:100F6000609530E009C02D9182279795879510F004
:100F700084279527305EC8F36F5FA8F30895EADFF2
:100F80008D939D930895CF93CFB7CF93DF93C39560
:100F9000849BE9F7849B0BC0849B09C0849B07C09A
:100FA000849B05C0849B03C0849B01C08BC06F934E
:100FB000C0915801DD27C15ADE4F2F9365E5849B10
:100FC00003C02F916F91E6CF0F931F934F9320E0B3
:100FD00040E15F9300B3047104FB27F93F9350E0B5
:100FE0003BE039C0147140642F77012F5F5F1EC052
:100FF000406810B314712F7752501FC0406400B383
:101000002F770471D1F15F5F00C023C0406210B33D
:101010002F77147191F15F5F00C025C00471102714
:10102000515012F45D5F0000115027952C3F10B312
:10103000C8F614710127015027952C3FC8F64227A6
:10104000499300B3047110274F73115027952C3F1B
:10105000A8F64695469510B3147179F00127015012
:1010600027952C3F98F66B5A60F3315000B3B0F6D9
:1010700000C010E41ABF002719C03B503195C31BB4
:10108000D04010E41ABF0881033C09F10B34F9F099
:10109000209156011981110F1213EDCF4A81441F7F
:1010A000093651F10D3211F0013E29F700935D012F
:1010B0003F915F914F911F910F912F916F91CAB7FF
:1010C000C6FD65CFDF91CF91CFBFCF91189520910D
:1010D0005D01222369F310915B01112391F53430F6
:1010E00092F130935B0120935701109158013BE03E
:1010F000311B3093580127C000915B0101300CF582
:101100000AE54F7049F43091620034FD1DC0009330
:101110006200CFE3D1E01CC030914A0134FD14C01D
:1011200000934A01CBE4D1E013C0052710E000C0D2
:10113000000002BB1AC0052710E0221F1DC010E0EE
:1011400021C04AE502C032ED432FC4E1D0E032E0D5
:1011500011B31461949A02B311BB54E120E865E322
:1011600020FF052702BB279517951C3FF0F66695D3
:10117000B8F7B1F720FF052702BB279517951C3F4D
:10118000D0F62795179517FF052700001C3F02BBD7
:10119000B0F629913A9519F70B7E10915C01110F69
:1011A000C651D04002BB11F01093560110E41ABF93
:1011B000006111B31B7E402F4B7E54E05A95F1F72E
:1011C00002BB11BB42BB74CF0895089508950895E2
:1011D000089508950E94830081E00E948D0287E6B1
:1011E00090E00E94DA0283E890E00E94DA020E9416
:1011F000B40389EA90E00E94DA020E94580183ED6C
:1012000090E00E94DA0260E070E081E890E00E94E5
:10121000A50380E090E0089597FB072E16F4009454
:1012200007D077FD09D00E945C0907FC05D03EF489
:10123000909581959F4F0895709561957F4F089582
:10124000A1E21A2EAA1BBB1BFD010DC0AA1FBB1FCA
:10125000EE1FFF1FA217B307E407F50720F0A21B3C
:10126000B30BE40BF50B661F771F881F991F1A94A9
:1012700069F760957095809590959B01AC01BD01D3
:10128000CF010895A29FB001B39FC001A39F700D2D
:10129000811D1124911DB29F700D811D1124911D7E
:1012A00008950E944209A59F900DB49F900DA49FA0
:1012B000800D911D11240895AA1BBB1B51E107C08D
:1012C000AA1FBB1FA617B70710F0A61BB70B881FD6
:1012D000991F5A95A9F780959095BC01CD01089565
:1012E0008F929F92AF92BF92CF92DF92EF92FF9236
:1012F000CF93DF93EC01688179818A819B816115AD
:1013000071058105910521F464E279ED8BE597E0A3
:101310002DE133EF41E050E00E94CC0949015A0130
:101320009B01AC01A7EAB1E40E9451096B017C0169
:10133000ACEEB4EFA50194010E94EE09DC01CB01F3
:101340008C0D9D1DAE1DBF1DB7FF03C00197A109E8
:10135000B04888839983AA83BB839F77DF91CF911D
:10136000FF90EF90DF90CF90BF90AF909F908F90C5
:1013700008950E947009089583E690E00E94700924
:101380000895A0E0B0E08093630090936400A09380
:101390006500B09366000895052E97FB1EF4009437
:1013A0000E94E30957FD07D00E94200907FC03D0E3
:1013B0004EF40C94E30950954095309521953F4F9C
:1013C0004F4F5F4F089590958095709561957F4F31
:1013D0008F4F9F4F0895B7FF0C9451090E945109F8
:0A13E000821B930B0895F894FFCFD1
:1013EA00FFFF5A01000000415652206861732062D3
:1013FA0065656E20696E697469616C697A65642EC7
:10140A002E2E004849445553422064657669636527
:10141A0020686173206265656E20696E697469610E
:10142A006C697A65642E2E2E005350492047504924
:10143A004F20457870616E6465722068617320621E
:10144A0065656E20696E697469616C697A65642E76
:10145A002E2E0045787465726E616C205352414D90
:10146A0020686173206265656E20696E69746961BE
:0A147A006C697A65642E2E2E0000C6
:00000001FF
