:100000000C942A000C9434000C9434000C943400AA
:100010000C9434000C9434000C9434000C94340090
:100020000C9434000C9434000C9434000C94340080
:100030000C9434000C9434000C9434000C94340070
:100040000C9434000C9434000C9434000C94340060
:100050000C94340011241FBECFE5D8E0DEBFCDBF25
:100060000E9498020C94CE020C94000008959C010A
:1000700083B7816083BF83B7826083BF85E02150EF
:10008000310950F082BF98B7916098BF08B600FE62
:10009000FDCF21503109B0F713BE0895DF92EF92E2
:1000A000FF920F931F93CF93DF939C0193B79160BF
:1000B00093BF93B7926093BFE9012197232BC1F0BF
:1000C0007A018B0185E0D82ED2BE98B7916098BF97
:1000D00008B600FEFDCFC701F8010995C817D9077A
:1000E00038F09E01281B390BE9012197232B61F77A
:1000F00013BEDF91CF911F910F91FF90EF90DF9092
:1001000008959C0183B7826083BF8EEF215031092F
:1001100050F082BF98B7916098BF08B600FEFDCF3F
:1001200021503109B0F713BE0895CF93DF93CDB7B7
:10013000DEB728970FB6F894DEBF0FBECDBF9C0187
:10014000ABE5B1E00E94BF0269837A838B839C8315
:100150001D821E821F8218864D815E816F81788587
:1001600089819A81AB81BC81481759076A077B074F
:10017000C0F48D819E81AF81B8850196A11DB11D0E
:100180008D839E83AF83B8874D815E816F81788533
:1001900089819A81AB81BC81481759076A077B071F
:1001A00040F328960FB6F894DEBF0FBECDBFDF91A7
:1001B000CF9108959C01F8941FBC1EBC9EB5986019
:1001C0009EBD9EB594609EBDA3E2B4EF0E94BF02A7
:1001D00028EE33E040E050E00E949D023BBD2ABD86
:1001E00089B7806189BF7894089508950895CF9361
:1001F000DF93EC0185E0FB01DE0101900D928A9511
:10020000E1F7EA81FB8181E090E09C010C8002C073
:10021000220F331F0A94E2F73081232B2083E881D9
:10022000F9819C010C8002C0220F331F0A94E2F76F
:100230003081232B2083E881F9810C8002C0880F54
:10024000991F0A94E2F78095908189238083BE9A52
:10025000BF9A6E9A6C9A709A80E48FB9779BFECFA2
:100260001FB8779BFECF8FEF8FB9779BFECFE881CA
:10027000F98181E090E00C8002C0880F991F0A94F8
:10028000E2F79081892B8083DF91CF910895CF93FE
:10029000DF93EC0185E0FB01DE0101900D928A9570
:1002A000E1F7EA81FB8181E090E09C010C8002C0D3
:1002B000220F331F0A94E2F73081232B2083E88139
:1002C000F9819C010C8002C0220F331F0A94E2F7CF
:1002D0003081232B2083E881F9810C8002C0880FB4
:1002E000991F0A94E2F78095908189238083BD9AB3
:1002F000BF9A6E9A6C9A709A80E48FB9779BFECF02
:100300001FB8779BFECF1FB8779BFECFE881F9819E
:1003100081E090E00C8002C0880F991F0A94E2F7F8
:100320009081892B8083DF91CF910895FC01A0817A
:10033000B18121E030E0048002C0220F331F0A9413
:10034000E2F720958C9128232C9381E48FB9779B39
:10035000FECF89E08FB9779BFECF779BFECF8FB121
:10036000A081B18121E030E0048002C0220F331F60
:100370000A94E2F79C91292B2C930895FC01A0810B
:10038000B18121E030E0048002C0220F331F0A94C3
:10039000E2F720958C9128232C9380E48FB9779BEA
:1003A000FECF89E08FB9779BFECF6FB9779BFECFE9
:1003B000A081B18121E030E0C901048002C0880F32
:1003C000991F0A94E2F79C91892B8C930895BE9A09
:1003D000BF9A6E9A6C9A709A80E48FB9779BFECF21
:1003E0001FB8779BFECF8FEF8FB9779BFECF089515
:1003F000BD9ABF9A6E9A6C9A709A80E48FB9779B77
:10040000FECF1FB8779BFECF1FB8779BFECF089516
:1004100081E48FB9779BFECF89E08FB9779BFECFC0
:10042000779BFECF8FB1089580E48FB9779BFECF85
:1004300089E08FB9779BFECF6FB9779BFECF089588
:10044000CF93DF93EC01862F68830E949302BD9ABD
:10045000BF9A6E9A6C9A709A80E48FB9779BFECFA0
:100460001FB8779BFECF1FB8779BFECF8881DF91A7
:10047000CF910C949302CF93DF93EC01862F688386
:100480000E949302BD9ABF9A6E9A6C9A709A80E409
:100490008FB9779BFECF1FB8779BFECF1FB8779B96
:1004A000FECF8881DF91CF910C9493021F93CF935D
:1004B000DF93EC0188810E94930281E48FB9779BDE
:1004C000FECF89E08FB9779BFECF779BFECF1FB120
:1004D00088810E949302812FDF91CF911F9108950F
:1004E0000F931F93CF93DF931F92CDB7DEB78C018D
:1004F000FC01808169830E94930280E48FB9698145
:10050000779BFECF89E08FB9779BFECF6FB9779B42
:10051000FECFF80180810F90DF91CF911F910F9155
:100520000C949302089508950895089508950895E8
:100530000E94F6000E94F500FFCFA1E21A2EAA1B2E
:10054000BB1BFD010DC0AA1FBB1FEE1FFF1FA21783
:10055000B307E407F50720F0A21BB30BE40BF50B80
:10056000661F771F881F991F1A9469F76095709509
:10057000809590959B01AC01BD01CF010895A29F8C
:10058000B001B39FC001A39F700D811D1124911D67
:10059000B29F700D811D1124911D0895F894FFCF15
:00000001FF
