:100000000C9462000C9467070C947F000C947F00A2
:100010000C947F000C947F000C947F000C947F0064
:100020000C947F000C947F000C947F000C947F0054
:100030000C947F000C947F000C947F000C947F0044
:100040000C947F000C947F000C947F000C947F0034
:100050000C947F000600FFA101150026FF00750823
:100060008501954009008102850209009102C009BD
:1000700002220001010080100904000001030000B9
:1000800000092101010001221B000705810308006E
:10009000141201100100000008C016DC0501000167
:1000A00002000110036400650062007500730073B4
:1000B0000079000C0364006100760069007300049D
:1000C0000309040011241FBECFE5D8E0DEBFCDBF79
:1000D00010E0A0E6B0E0E6E1F3E102C005900D9289
:1000E000A437B107D9F720E0A4E7B0E001C01D9222
:1000F000AF3EB207E1F70E948E080C9489090C9478
:10010000000081E008959FE088E10FB6F894A8957B
:1001100081BD0FBE91BD08959C0183B7816083BFEF
:1001200083B7826083BF85E02150310970F082BFC0
:1001300098B7916098BF08B600FCF6CFA89508B6AE
:1001400000FEFCCF2150310990F713BE0895DF92D5
:10015000EF92FF920F931F93CF93DF939C0193B77E
:10016000916093BF93B7926093BFE9012197232BCE
:10017000E1F07A018B0185E0D82ED2BE98B791606C
:1001800098BF08B600FC04C0A89508B600FEFCCFD6
:10019000C701F8010995C817D90738F09E01281B37
:1001A000390BE9012197232B41F713BEDF91CF9142
:1001B0001F910F91FF90EF90DF9008959C0183B7FE
:1001C000826083BF8EEF2150310970F082BF98B7F3
:1001D000916098BF08B600FCF6CFA89508B600FE5F
:1001E000FCCF2150310990F713BE0895CF93DF93D0
:1001F000CDB7DEB728970FB6F894DEBF0FBECDBFE0
:100200009C01ABE5B1E00E94D80869837A838B83B7
:100210009C831D821E821F8218864D815E816F81A4
:10022000788589819A81AB81BC81481759076A0713
:100230007B07C8F4A8958D819E81AF81B885019612
:10024000A11DB11D8D839E83AF83B8874D815E81D3
:100250006F81788589819A81AB81BC814817590764
:100260006A077B0738F328960FB6F894DEBF0FBEF7
:10027000CDBFDF91CF9108959B01AC01F8941FBCD5
:100280001EBC8EB588608EBD8EB584608EBDA3E227
:10029000B4EF0E94E70828EE33E040E050E00E940F
:1002A000B6083BBD2ABD89B7806189BF789408959F
:1002B00008958FEF87BBC698C39A84BB81BB87BB69
:1002C0001ABA08958FEF87BBC39884BB81BB87BBE5
:1002D0008ABB0895C39AC69A14BA11BA17BA1ABA41
:1002E0000895FB01808185BB818182BB82818770FB
:1002F00088BB21153105E9F0FA01240F351F8191E2
:100300008BBB85B352B347B390E0952BA0E0B0E030
:10031000A42B0196A11DB11DAD016627772747BB10
:10032000492F5A2F6B2F772742BB85BBE217F30764
:1003300031F70895FB01808185BB818182BB828179
:10034000877088BB21153105E9F0FA01240F351FAC
:100350008BB3819385B352B347B390E0952BA0E064
:10036000B0E0A42B0196A11DB11DAD016627772732
:1003700047BB492F5A2F6B2F772742BB85BBE2170C
:10038000F30731F70895CF93DF93CDB7DEB7C550AC
:10039000D4400FB6F894DEBF0FBECDBF4E018FEF35
:1003A000881A8DEF980A2401FE0131963F015E0103
:1003B000FFEFAF1AFBEFBF0A73018401CC24CA948C
:1003C000D12C0E945209B6010E94A208F801819323
:1003D0008F01F70111927F010A151B0591F7F801B2
:1003E0001082118212821382FF24FA94F7BAC39802
:1003F000F4BAF1BAF7BAFABA20E032E0A401B801CF
:10040000CE018B5F9B4F0E947101F7BAC698C39AC9
:10041000F4BAF1BAF7BA1ABA20E032E0AE014F5F8F
:100420005F4FB801CE018B5F9B4F0E949A0103C0C2
:100430006814790461F0F30191913F01F201819117
:100440002F019817A9F3C598BF9AC79AFDCFC798EF
:10045000BD9AC59AFDCF0F931F93CF9305E710E088
:10046000C0E0A8950E94D7059091C40094FFF9CFF1
:1004700061E0C8010E94B405CF5F0F5F1F4FC13418
:1004800081F7CF911F910F910895FC0101900020F9
:10049000E9F731979F01281B390B41E0420F51E0EA
:1004A000509375001092B4004093B500442359F066
:1004B000DC01E6E7F0E0332729583F4F8D91819327
:1004C000E217F307D9F708954091B600461708F4EC
:1004D000642F5091B700662389F0A52FB0E0AB5888
:1004E000BF4FFC012FEF260F30E02F5F3F4F280F4B
:1004F000391F9D919193E217F307D9F7560F509347
:10050000B700461B4093B600862F08954091B60071
:10051000442329F1461708F15091B700662389F06A
:10052000FC01A52FB0E0AB58BF4F2FEF260F30E0F6
:100530002F5F3F4F280F391F81918D93E217F307EB
:10054000D9F7560F5093B700461B4093B60081E091
:10055000411101C0089580E00895642FDDCF81E04E
:1005600008951092B7008EE38093B60080E090E08B
:10057000089580937400811101C00895F89411BA10
:1005800012BA0E9441078C9A8CE291E00E948C0082
:100590008C9878940895089508950F931F93CF939E
:1005A00005E710E0C0E0A8950E94D7059091C4002F
:1005B00094FFF9CF61E0C8010E94B405CF5F0F5FDF
:1005C0001F4FC13481F7CF911F910F9108950F9361
:1005D0001F93CF93FB0101900020E9F731979F0112
:1005E000261B370B81E0820F91E0909375001092EB
:1005F000B4008093B500882359F0DB01E6E7F0E012
:10060000332729583F4F8D918193E217F307D9F78C
:1006100005E710E0C0E0A8950E94D7059091C400BE
:1006200094FFF9CF61E0C8010E94B405CF5F0F5F6E
:100630001F4FC13481F7CF911F910F9108950C94F2
:10064000D70587E690E00E9445020E942B0287E6CC
:1006500090E00E9445020E942B0287E690E00E94F3
:1006600045020E942B0287E690E00E9445020E940C
:100670002B0287E690E00E9445020E942B0287E64B
:1006800090E00E9445020E942B020E94D705A89587
:10069000FCCFEC018B01209721F4A8950E941F0349
:1006A000FCCFA8950E941F03C801FE010995F3CF56
:1006B0000895CF93DF93EC0185E0FB01DE0101900B
:1006C0000D928A95E1F7EA81FB8181E090E09C013F
:1006D0000C8002C0220F331F0A94E2F73081232BD3
:1006E0002083E881F9819C010C8002C0220F331F16
:1006F0000A94E2F73081232B2083E881F9810C8072
:1007000002C0880F991F0A94E2F78095908189238F
:100710008083BE9ABF9A6E9A6C9A709A80E48FB961
:10072000779BFECF1FB8779BFECF8FEF8FB9779B5C
:10073000FECFE881F98181E090E00C8002C0880F53
:10074000991F0A94E2F79081892B8083DF91CF91E2
:100750000895CF93DF93EC0185E0FB01DE0101906A
:100760000D928A95E1F7EA81FB8181E090E09C019E
:100770000C8002C0220F331F0A94E2F73081232B32
:100780002083E881F9819C010C8002C0220F331F75
:100790000A94E2F73081232B2083E881F9810C80D1
:1007A00002C0880F991F0A94E2F7809590818923EF
:1007B0008083BD9ABF9A6E9A6C9A709A80E48FB9C2
:1007C000779BFECF1FB8779BFECF1FB8779BFECFDE
:1007D000E881F98181E090E00C8002C0880F991FC8
:1007E0000A94E2F79081892B8083DF91CF9108955D
:1007F000FC01A081B18121E030E0048002C0220F21
:10080000331F0A94E2F720958C9128232C9381E4DE
:100810008FB9779BFECF89E08FB9779BFECF779B0F
:10082000FECF8FB1A081B18121E030E0048002C011
:10083000220F331F0A94E2F79C91292B2C930895E1
:10084000FC01A081B18121E030E0048002C0220FD0
:10085000331F0A94E2F720958C9128232C9380E48F
:100860008FB9779BFECF89E08FB9779BFECF6FB9A9
:10087000779BFECFA081B18121E030E0C9010480E7
:1008800002C0880F991F0A94E2F79C91892B8C93E0
:100890000895BE9ABF9A6E9A6C9A709A80E48FB946
:1008A000779BFECF1FB8779BFECF8FEF8FB9779BDB
:1008B000FECF0895BD9ABF9A6E9A6C9A709A80E4A2
:1008C0008FB9779BFECF1FB8779BFECF1FB8779B62
:1008D000FECF089581E48FB9779BFECF89E08FB971
:1008E000779BFECF779BFECF8FB1089580E48FB9C1
:1008F000779BFECF89E08FB9779BFECF6FB9779B4F
:10090000FECF0895CF93DF93CDB7DEB764970FB6D0
:10091000F894DEBF0FBECDBF22E330E0398B288BC9
:1009200081E390E09B8B8A8B1C8A3C872B879E8778
:100930008D8781E08F87BE01605F7F4FCE01069675
:100940000E94A903BE01655F7F4FCE0101960E9400
:10095000A90301E010E080E4D82E99E0E92E20E21E
:10096000F22EEE81FF81C8010A8402C0880F991F10
:100970000A94E2F78095908189238083DFB8779B82
:10098000FECFEFB8779BFECFFFB8779BFECFEE810F
:10099000FF81C8010A8402C0880F991F0A94E2F7F8
:1009A0009081892B8083E981FA81C8010D8002C082
:1009B000880F991F0A94E2F780959081892380839C
:1009C000DFB8779BFECFEFB8779BFECF1FB8779B42
:1009D000FECFE981FA81C8010D8002C0880F991FFE
:1009E0000A94E2F79081892B808384EF91E00E9442
:1009F0008C00EE81FF81C8010A8402C0880F991F14
:100A00000A94E2F78095908189238083DFB8779BF1
:100A1000FECFEFB8779BFECF1FB8779BFECFEE815E
:100A2000FF81C8010A8402C0880F991F0A94E2F767
:100A30009081892B8083E981FA81C8010D8002C0F1
:100A4000880F991F0A94E2F780959081892380830B
:100A5000DFB8779BFECFEFB8779BFECFFFB8779BD1
:100A6000FECFE981FA81C8010D8002C0880F991F6D
:100A70000A94E2F79081892B808384EF91E00E94B1
:100A80008C006FCFCF93DF93EC01862F68830E9499
:100A90008908BD9ABF9A6E9A6C9A709A80E48FB951
:100AA000779BFECF1FB8779BFECF1FB8779BFECFFB
:100AB0008881DF91CF910C948908CF93DF93EC016B
:100AC000862F68830E948908BD9ABF9A6E9A6C9A95
:100AD000709A80E48FB9779BFECF1FB8779BFECFCB
:100AE0001FB8779BFECF8881DF91CF910C94890846
:100AF0001F93CF93DF93EC0188810E94890881E4E2
:100B00008FB9779BFECF89E08FB9779BFECF779B1C
:100B1000FECF1FB188810E948908812FDF91CF917C
:100B20001F9108950F931F93CF93DF931F92CDB71B
:100B3000DEB78C01FC01808169830E94890880E412
:100B40008FB96981779BFECF89E08FB9779BFECF04
:100B50006FB9779BFECFF80180810F90DF91CF9125
:100B60001F910F910C948908CF93C62F2091C40038
:100B700024FF19C03091C50028E823272093C50021
:100B80002C2FFC01A6ECB0E081918D932150121620
:100B9000DCF36C2F86EC90E00E946307CC5FC0937F
:100BA000C400CF9108952AE52093C400E9CFCF93E4
:100BB000DF938091D500835087FD08C02091D2003B
:100BC0009091D1009D32E1F11092D50080916200A8
:100BD00084FF29C080916000909161008F3F2FEFCA
:100BE000920709F18930910508F05BC0109261000D
:100BF000109260003091B90028E823272093B900B3
:100C0000682FC4E0009709F0A4C08AEB90E00E942E
:100C10006307CC3031F08FEF9FEF909361008093AA
:100C20006000C093620094E180B3847131F491500C
:100C3000D9F71092D6001092D000DF91CF9108958D
:100C4000883009F0C1CFCCE0D0E0C21BD109C75237
:100C5000DF4F83EC8093B9008AE5809362001092A5
:100C6000B8008881807609F070C09A811092C20025
:100C7000898181117FC01092C30022EC30E082E0B4
:100C800090E03093D4002093D3004E815F819C018B
:100C90004817590708F49A013093610020936000C7
:100CA00093CF089790936100809360009091B90072
:100CB00088E889278093B9002091D3003091D4002F
:100CC0008091B80086FD2FC0F90181918093BA0010
:100CD00087E0CCE068E090819093BB008130E1F048
:100CE00091819093BC008230B9F092819093BD00C5
:100CF000833091F093819093BE00843069F09481A9
:100D00009093BF00853041F095819093C00086306C
:100D100019F096819093C100E80FF11DF093D40073
:100D2000E093D30072CFCCE068E0AAEBB0E0F90129
:100D3000862F94919D9331968150D9F7F901319680
:100D40008FEF860FE80FF11DE9CFCE010E94B102AF
:100D50009CCFC80F2091D3003091D4004091B800AF
:100D600046FDE3CFF90191919093BA00815009F0CB
:100D7000B2CFD2CF853079F0863069F1883091F0EA
:100D80008930D1F08A3099F08B30E9F022EC30E0F4
:100D900080E090E076CF9093D60022EC30E080E0C7
:100DA00090E06FCF28ED30E081E090E06ACF22EC58
:100DB00030E081E090E065CF9093D80022EC30E005
:100DC00080E090E05ECF8BE48093C50022EC30E0C1
:100DD00080E090E056CF8B81813071F0823091F1CC
:100DE000833029F18132D1F0823279F080E090E0D5
:100DF00020E42093B80049CF81E990E09093D4009B
:100E00008093D30082E190E0F3CF84E590E090936B
:100E1000D4008093D3008BE190E0EACF81E890E0AA
:100E20009093D4008093D30089E090E0E1CF9111BA
:100E300012C08FEB90E09093D4008093D30084E0B5
:100E400090E0D6CF8FE690E09093D4008093D300CB
:100E500082E290E0CDCF913059F0923039F683EABA
:100E600090E09093D4008093D30080E190E0C0CFD5
:100E700083EB90E09093D4008093D3008CE090E0DB
:100E8000B7CF85B7826085BF8BB780648BBFE4EC3A
:100E9000F0E08BE481838AE580830895A82FB92F41
:100EA00080E090E041E050EA609530E009C02D918B
:100EB00082279795879510F084279527305EC8F391
:100EC0006F5FA8F30895EADF8D939D930895CF9304
:100ED000CFB7CF93DF93C395849BE9F7849B0BC077
:100EE000849B09C0849B07C0849B05C0849B03C06E
:100EF000849B01C08BC06F93C091D200DD27C75285
:100F0000DF4F2F9365E5849B03C02F916F91E6CF50
:100F10000F931F934F9320E040E15F9300B3047160
:100F200004FB27F93F9350E03BE039C01471406463
:100F30002F77012F5F5F1EC0406810B314712F77A9
:100F400052501FC0406400B32F770471D1F15F5F2E
:100F500000C023C0406210B32F77147191F15F5F1E
:100F600000C025C004711027515012F45D5F0000CD
:100F7000115027952C3F10B3C8F61471012701506A
:100F800027952C3FC8F64227499300B304711027D8
:100F90004F73115027952C3FA8F64695469510B3F0
:100FA000147179F00127015027952C3F98F66B5A60
:100FB00060F3315000B3B0F600C010E41ABF002750
:100FC00019C03B503195C31BD04010E41ABF0881B3
:100FD000033C09F10B34F9F02091D0001981110F75
:100FE0001213EDCF4A81441F093651F10D3211F031
:100FF000013E29F70093D7003F915F914F911F91D8
:101000000F912F916F91CAB7C6FD65CFDF91CF9138
:10101000CFBFCF9118952091D700222369F310916B
:10102000D500112391F5343092F13093D5002093FF
:10103000D1001091D2003BE0311B3093D20027C089
:101040000091D50001300CF50AE54F7049F430915C
:10105000620034FD1DC000936200C9EBD0E01CC0EB
:101060003091C40034FD14C00093C400C5ECD0E03E
:1010700013C0052710E000C0000002BB1AC00527FE
:1010800010E0221F1DC010E021C04AE502C032ED71
:10109000432FC4E1D0E032E011B31461949A02B35B
:1010A00011BB54E120E865E320FF052702BB27952B
:1010B00017951C3FF0F66695B8F7B1F720FF0527A6
:1010C00002BB279517951C3FD0F62795179517FF5C
:1010D000052700001C3F02BBB0F629913A9519F78D
:1010E0000B7E1091D600110FC651D04002BB11F0FB
:1010F0001093D00010E41ABF006111B31B7E402F83
:101100004B7E54E05A95F1F702BB11BB42BB74CF42
:101110000895089508950895089508950E948300FC
:1011200081E00E94B9020E9458030E9458010E9467
:10113000210360E070E081E890E00E94490380E0D4
:1011400090E0089597FB072E16F4009407D077FDE2
:1011500009D00E94F20807FC05D03EF490958195D5
:101160009F4F0895709561957F4F0895A1E21A2EC3
:10117000AA1BBB1BFD010DC0AA1FBB1FEE1FFF1F3B
:10118000A217B307E407F50720F0A21BB30BE40B8B
:10119000F50B661F771F881F991F1A9469F76095D2
:1011A0007095809590959B01AC01BD01CF0108958C
:1011B000A29FB001B39FC001A39F700D811D112498
:1011C000911DB29F700D811D1124911D08950E94E3
:1011D000D808A59F900DB49F900DA49F800D911DE0
:1011E00011240895AA1BBB1B51E107C0AA1FBB1FF6
:1011F000A617B70710F0A61BB70B881F991F5A95A3
:10120000A9F780959095BC01CD0108958F929F928A
:10121000AF92BF92CF92DF92EF92FF92CF93DF9384
:10122000EC01688179818A819B8161157105810555
:10123000910521F464E279ED8BE597E02DE133EF40
:1012400041E050E00E94620949015A019B01AC0152
:10125000A7EAB1E40E94E7086B017C01ACEEB4EFB1
:10126000A50194010E948409DC01CB018C0D9D1D18
:10127000AE1DBF1DB7FF03C00197A109B048888309
:101280009983AA83BB839F77DF91CF91FF90EF90E3
:10129000DF90CF90BF90AF909F908F9008950E9465
:1012A0000609089583E690E00E9406090895A0E0EB
:1012B000B0E08093630090936400A0936500B093C6
:1012C00066000895052E97FB1EF400940E9479098C
:1012D00057FD07D00E94B60807FC03D04EF40C94CB
:1012E000790950954095309521953F4F4F4F5F4F6D
:1012F000089590958095709561957F4F8F4F9F4F82
:101300000895B7FF0C94E7080E94E708821B930B2F
:061310000895F894FFCFE0
:10131600FFFF5A0100000068656C6C6F20776F72E2
:041326006C640000F3
:00000001FF
