:100000000C9462000C94EC070C947F000C947F001D
:100010000C947F000C947F000C947F000C947F0064
:100020000C947F000C947F000C947F000C947F0054
:100030000C947F000C947F000C947F000C947F0044
:100040000C947F000C947F000C947F000C947F0034
:100050000C947F000600FFA101150026FF00750823
:100060008501954009018182850209019182C009BB
:10007000022200010100C032090400000103000057
:1000800000092101010001221B000705810308006E
:10009000141201100100000008C016DC0501000167
:1000A00002000110036400650062007500730073B4
:1000B0000079000C0364006100760069007300049D
:1000C0000309040011241FBECFE5D8E0DEBFCDBF79
:1000D00010E0A0E6B0E0E4E6F5E102C005900D9284
:1000E000A23BB107D9F721E0A2EBB0E001C01D921D
:1000F000A133B207E1F70E940D090C94B00A0C94E9
:10010000000081E008959FE088E10FB6F894A8957B
:1001100081BD0FBE91BD08959C0183B7816083BFEF
:1001200083B7826083BF85E02150310970F082BFC0
:1001300098B7916098BF08B600FCF6CFA89508B6AE
:1001400000FEFCCF2150310990F713BE0895DF92D5
:10015000EF92FF920F931F93CF93DF939C0193B77E
:10016000916093BF93B7926093BFE9012197232BCE
:10017000E1F07A018B0185E0D82ED2BE98B791606C
:1001800098BF08B600FC04C0A89508B600FEFCCFD6
:10019000C701F8010995C817D90738F09E01281B37
:1001A000390BE9012197232B41F713BEDF91CF9142
:1001B0001F910F91FF90EF90DF9008959C0183B7FE
:1001C000826083BF8EEF2150310970F082BF98B7F3
:1001D000916098BF08B600FCF6CFA89508B600FE5F
:1001E000FCCF2150310990F713BE0895CF93DF93D0
:1001F000CDB7DEB728970FB6F894DEBF0FBECDBFE0
:100200009C01ABE5B1E00E945B0969837A838B8333
:100210009C831D821E821F8218864D815E816F81A4
:10022000788589819A81AB81BC81481759076A0713
:100230007B07C8F4A8958D819E81AF81B885019612
:10024000A11DB11D8D839E83AF83B8874D815E81D3
:100250006F81788589819A81AB81BC814817590764
:100260006A077B0738F328960FB6F894DEBF0FBEF7
:10027000CDBFDF91CF9108959B01AC01F8941FBCD5
:100280001EBC8EB588608EBD8EB584608EBDA3E227
:10029000B4EF0E946A0928EE33E040E050E00E948B
:1002A00039093BBD2ABD89B7806189BF789408951B
:1002B00085EA90E008950E94BD0381E008950E94C0
:1002C000C90381E008950C94C9030C94CD030E94E6
:1002D000A20A0E94A20A0E94A20A0E94A20A0E94E6
:1002E000A20A0E94A20A0E94A20A0E94A20AFF92E7
:1002F0000F931F93CF93DF93CDB7DEB7C154D109CE
:100300000FB6F894DEBF0FBECDBF8B010E94CD03A8
:1003100081110DC0CF5BDF4F0FB6F894DEBF0FBE6B
:10032000CDBFDF91CF911F910F91FF900895F801FC
:1003300001900020E9F7FE2EF01A4F2D60E0CE016B
:1003400001960E9456034F2D50E0B801CE0104964D
:100350000E94A70ACE0101960E94CF03DBCF2F9205
:100360003F924F925F926F927F928F929F92AF9245
:10037000BF92CF92DF92EF92FF920F931F93CF9392
:10038000DF9300D01F92CDB7DEB73C012B011A01DD
:1003900081E2F30111928A95E9F74115510509F4BB
:1003A0005DC0FA0101900020E9F7AF01421953093D
:1003B000CA012B8349835A830E94750949815A8156
:1003C000B1010E94A70A2B81F301918380832283CC
:1003D0005482438216830583F086E782D286C186E3
:1003E000B486A38696868586888D998D908B87871F
:1003F0008A8D9B8D928B818B8C8D9D8D948B838B25
:100400008E8D9F8D968B858B88A199A1908F878BE0
:100410008AA19BA1928F818F8CA19DA1948F838FA4
:100420008EA19FA1968F858F88A599A590A3878F70
:100430000F900F900F90DF91CF911F910F91FF9030
:10044000EF90DF90CF90BF90AF909F908F907F9074
:100450006F905F904F903F902F90089580E090E0D4
:10046000B3CFCF93DF93EC01ED81FE8109958881B5
:1004700099810E940A0A81E2FE0111928A95E9F7A8
:10048000DF91CF910895DC011796ED91FC911897BB
:100490000994DC011996ED91FC911A970994DC01FD
:1004A0001B96ED91FC911C970994DC011D96ED9132
:1004B000FC911E970994DC011F96ED91FC915097D9
:1004C0000994DC015196ED91FC9152970994DC015D
:1004D0005396ED91FC9154970994DC015596ED915A
:1004E000FC9156970994DC015796ED91FC91589731
:1004F0000994DC015996ED91FC915A970994DC011D
:100500005B96ED91FC915C970994DC015D96ED9111
:10051000FC915E970994DC015F96ED91FC919097B8
:10052000099481E290E00E947509FC0181E2DF01FB
:10053000982F1D929A95E9F7DF011D928A95E9F7A8
:100540001182108212821482138283E691E09683D4
:1005500085838BE591E0908787838FE591E0928793
:10056000818785E691E09487838787E691E0968787
:10057000858787E791E0908B878789E691E0928B6A
:10058000818B8BE691E0948B838B8DE691E0968B4B
:10059000858B8FE691E0908F878B81E791E0928F3A
:1005A000818F83E791E0948F838F85E791E0968F29
:1005B000858F88E591E090A3878FCF010895FC0196
:1005C00081E2DF01982F1D929A95E9F7DF011D92D4
:1005D0008A95E9F71182108212821482138283E6CF
:1005E00091E0968385838BE591E0908787838FE503
:1005F00091E09287818785E691E09487838787E6FB
:1006000091E09687858787E791E0908B878789E6D9
:1006100091E0928B818B8BE691E0948B838B8DE6BE
:1006200091E0968B858B8FE691E0908F878B81E7A9
:1006300091E0928F818F83E791E0948F838F85E79C
:1006400091E0968F858F88E591E090A3878F08953C
:10065000CF93DF93CDB7DEB7C256D1090FB6F8946A
:10066000DEBF0FBECDBFCE018E5B9F4F0E94DF026B
:100670000E94BD0303C00E94D003A8950E94CD0331
:100680008823C9F34CE060E0CE0101960E94560336
:100690008CE0E6EAF0E0DE01149601900D928A9576
:1006A000E1F7CE0101960E94CF03E5CFFC0181E086
:1006B00080836183428308954091F400461708F4D3
:1006C000642F5091F500662389F0A52FB0E0AD545A
:1006D000BF4FFC012FEF260F30E02F5F3F4F280F59
:1006E000391F9D919193E217F307D9F7560F509355
:1006F000F500461B4093F400862F08954091F400C6
:10070000442329F1461708F15091F500662389F03A
:10071000FC01A52FB0E0AD54BF4F2FEF260F30E006
:100720002F5F3F4F280F391F81918D93E217F307F9
:10073000D9F7560F5093F500461B4093F40081E023
:10074000411101C0089580E00895642FDDCF81E05C
:1007500008951092F5008EE38093F4008FEF9FEFE1
:1007600008958093B200811101C00895F89411BAE0
:1007700012BA0E94C607789408958091B200811140
:1007800001C008958C9A8CE291E00E948C008C98B4
:10079000089508958091B200089580E00895089525
:1007A0000C945606EC018B01209721F4A8950E9429
:1007B000D003FCCFA8950E94D003C801FE01099583
:1007C000F3CF0895CF93DF93EC0185E0FB01DE01C9
:1007D00001900D928A95E1F7EA81FB8181E090E03A
:1007E0009C010C8002C0220F331F0A94E2F7308173
:1007F000232B2083E881F9819C010C8002C0220F09
:10080000331F0A94E2F73081232B2083E881F9819A
:100810000C8002C0880F991F0A94E2F7809590819E
:1008200089238083BE9ABF9A6E9A6C9A709A80E4EC
:100830008FB9779BFECF1FB8779BFECF8FEF8FB915
:10084000779BFECFE881F98181E090E00C8002C0C7
:10085000880F991F0A94E2F79081892B8083DF919A
:10086000CF910895CF93DF93EC0185E0FB01DE018A
:1008700001900D928A95E1F7EA81FB8181E090E099
:100880009C010C8002C0220F331F0A94E2F73081D2
:10089000232B2083E881F9819C010C8002C0220F68
:1008A000331F0A94E2F73081232B2083E881F981FA
:1008B0000C8002C0880F991F0A94E2F780959081FE
:1008C00089238083BD9ABF9A6E9A6C9A709A80E44D
:1008D0008FB9779BFECF1FB8779BFECF1FB8779B52
:1008E000FECFE881F98181E090E00C8002C0880FA2
:1008F000991F0A94E2F79081892B8083DF91CF9131
:100900000895FC01A081B18121E030E0048002C0A3
:10091000220F331F0A94E2F720958C9128232C9301
:1009200081E48FB9779BFECF89E08FB9779BFECFAB
:10093000779BFECF8FB1A081B18121E030E00480B0
:1009400002C0220F331F0A94E2F79C91292B2C93AB
:100950000895FC01A081B18121E030E0048002C053
:10096000220F331F0A94E2F720958C9128232C93B1
:1009700080E48FB9779BFECF89E08FB9779BFECF5C
:100980006FB9779BFECFA081B18121E030E0C90132
:10099000048002C0880F991F0A94E2F79C91892B6A
:1009A0008C930895BE9ABF9A6E9A6C9A709A80E45E
:1009B0008FB9779BFECF1FB8779BFECF8FEF8FB994
:1009C000779BFECF0895BD9ABF9A6E9A6C9A709AE3
:1009D00080E48FB9779BFECF1FB8779BFECF1FB8FF
:1009E000779BFECF089581E48FB9779BFECF89E096
:1009F0008FB9779BFECF779BFECF8FB1089580E4B0
:100A00008FB9779BFECF89E08FB9779BFECF6FB907
:100A1000779BFECF0895CF93DF93CDB7DEB7649772
:100A20000FB6F894DEBF0FBECDBF22E330E0398BA6
:100A3000288B81E390E09B8B8A8B1C8A3C872B87D9
:100A40009E878D8781E08F87BE01605F7F4FCE01DB
:100A500006960E943204BE01655F7F4FCE0101966B
:100A60000E94320401E010E080E4D82E99E0E92EE3
:100A700020E2F22EEE81FF81C8010A8402C0880FB5
:100A8000991F0A94E2F78095908189238083DFB8CB
:100A9000779BFECFEFB8779BFECFFFB8779BFECF5B
:100AA000EE81FF81C8010A8402C0880F991F0A9451
:100AB000E2F79081892B8083E981FA81C8010D805A
:100AC00002C0880F991F0A94E2F7809590818923CC
:100AD0008083DFB8779BFECFEFB8779BFECF1FB840
:100AE000779BFECFE981FA81C8010D8002C0880F93
:100AF000991F0A94E2F79081892B808384EF91E01B
:100B00000E948C00EE81FF81C8010A8402C0880F18
:100B1000991F0A94E2F78095908189238083DFB83A
:100B2000779BFECFEFB8779BFECF1FB8779BFECFAA
:100B3000EE81FF81C8010A8402C0880F991F0A94C0
:100B4000E2F79081892B8083E981FA81C8010D80C9
:100B500002C0880F991F0A94E2F78095908189233B
:100B60008083DFB8779BFECFEFB8779BFECFFFB8CF
:100B7000779BFECFE981FA81C8010D8002C0880F02
:100B8000991F0A94E2F79081892B808384EF91E08A
:100B90000E948C006FCFFC01608382B3682B62BB24
:100BA000C398C39ABD9ABF9A6E9A6C9A709A80E461
:100BB0008FB9779BFECF1FB8779BFECF1FB8779B6F
:100BC000FECF82B3876082BBC398C39A0895FC01AD
:100BD000608382B3682B62BBC398C39ABD9ABF9AE5
:100BE0006E9A6C9A709A80E48FB9779BFECF1FB88B
:100BF000779BFECF1FB8779BFECF82B3876082BB07
:100C0000C398C39A0895FC0192B38081892B82BB5B
:100C1000C398C39A81E48FB9779BFECF89E08FB9DF
:100C2000779BFECF779BFECF8FB192B3976092BB3D
:100C3000C398C39A0895FC0192B38081892B82BB2B
:100C4000C398C39A80E48FB9779BFECF89E08FB9B0
:100C5000779BFECF6FB9779BFECF82B3876082BB55
:100C6000C398C39A0895CF93C62F2091020124FF01
:100C700019C03091030128E82327209303012C2F6A
:100C8000FC01A4E0B1E081918D9321501216DCF3B8
:100C90006C2F84E091E00E94E807CC5FC0930201D2
:100CA000CF9108952AE520930201E9CFCF93DF93F6
:100CB00080911301835087FD08C02091100190910D
:100CC0000F019D32E1F1109213018091620084FFC7
:100CD00029C080916000909161008F3F2FEF9207B3
:100CE00009F18930910508F061C0109261001092FD
:100CF00060003091F70028E823272093F700682F41
:100D0000C4E0009709F0AAC088EF90E00E94E807CD
:100D1000CC3031F08FEF9FEF9093610080936000B3
:100D2000C093620094E180B3847131F49150D9F79B
:100D30001092140110920E01DF91CF910895883026
:100D400009F0C1CFCCE0D0E0C21BD109C95EDE4FB3
:100D500083EC8093F7008AE5809362001092F6009E
:100D60008881982F907609F075C02A811092000131
:100D70009981911184C08F7119F481E080930001F1
:100D80001092010120E031E082E090E03093120106
:100D9000209311014E815F819C014817590708F487
:100DA0009A0130936100209360008DCF0897909353
:100DB0006100809360009091F70088E88927809314
:100DC000F70020911101309112018091F60086FD0B
:100DD0002FC0F90181918093F80087E068E0CCE0B2
:100DE00090819093F9008130E1F091819093FA0025
:100DF0008230B9F092819093FB00833091F093811F
:100E00009093FC00843069F094819093FD008530CC
:100E100041F095819093FE00863019F09681909371
:100E2000FF00E80FF11DF0931201E09311016CCF68
:100E300068E0CCE0A8EFB0E0F901862F94919D9393
:100E400031968150D9F7F90131968FEF860FE80F6F
:100E5000F11DE9CFCE010E94A9039CCFC80F2091BC
:100E60001101309112014091F60046FDE3CFF901E6
:100E700091919093F800815009F0B2CFD2CF953084
:100E800079F0963069F1983091F09930D1F09A303C
:100E900099F09B30E9F020E031E080E090E076CFFF
:100EA0002093140120E031E080E090E06FCF26E154
:100EB00031E081E090E06ACF20E031E081E090E035
:100EC00065CF2093160120E031E080E090E05ECF16
:100ED0008BE48093030120E031E080E090E056CF86
:100EE0008B81813071F0823091F1833029F1813230
:100EF000D1F0823279F080E090E020E42093F60097
:100F000049CF81E990E0909312018093110182E131
:100F100090E0F3CF84E590E090931201809311016B
:100F20008BE190E0EACF81E890E09093120180930A
:100F3000110189E090E0E1CF211112C08FEB90E028
:100F4000909312018093110184E090E0D6CF8FE658
:100F500090E0909312018093110182E290E0CDCF56
:100F6000213059F0223039F683EA90E09093120153
:100F70008093110180E190E0C0CF83EB90E09093EB
:100F80001201809311018CE090E0B7CF85B78260A9
:100F900085BF8BB780648BBFE2E0F1E08BE4818397
:100FA0008AE580830895A82FB92F80E090E041E082
:100FB00050EA609530E009C02D918227979587957A
:100FC00010F084279527305EC8F36F5FA8F308956B
:100FD000EADF8D939D930895CF93CFB7CF93DF939F
:100FE000C395849BE9F7849B0BC0849B09C0849BB9
:100FF00007C0849B05C0849B03C0849B01C08BC039
:101000006F93C0911001DD27C95EDE4F2F9365E518
:10101000849B03C02F916F91E6CF0F931F934F9343
:1010200020E040E15F9300B3047104FB27F93F9394
:1010300050E03BE039C0147140642F77012F5F5FAF
:101040001EC0406810B314712F7752501FC0406407
:1010500000B32F770471D1F15F5F00C023C04062FD
:1010600010B32F77147191F15F5F00C025C0047138
:101070001027515012F45D5F0000115027952C3F4E
:1010800010B3C8F614710127015027952C3FC8F6FC
:101090004227499300B3047110274F7311502795CD
:1010A0002C3FA8F64695469510B3147179F00127A8
:1010B000015027952C3F98F66B5A60F3315000B3DE
:1010C000B0F600C010E41ABF002719C03B5031959C
:1010D000C31BD04010E41ABF0881033C09F10B3454
:1010E000F9F020910E011981110F1213EDCF4A81F1
:1010F000441F093651F10D3211F0013E29F70093DA
:1011000015013F915F914F911F910F912F916F9119
:10111000CAB7C6FD65CFDF91CF91CFBFCF911895EC
:1011200020911501222369F310911301112391F5E8
:10113000343092F13093130120930F01109110017C
:101140003BE0311B3093100127C0009113010130A7
:101150000CF50AE54F7049F43091620034FD1DC072
:1011600000936200C7EFD0E01CC03091020134FD53
:1011700014C000930201C3E0D1E013C0052710E0C2
:1011800000C0000002BB1AC0052710E0221F1DC0CE
:1011900010E021C04AE502C032ED432FC4E1D0E0A7
:1011A00032E011B31461949A02B311BB54E120E808
:1011B00065E320FF052702BB279517951C3FF0F636
:1011C0006695B8F7B1F720FF052702BB279517955D
:1011D0001C3FD0F62795179517FF052700001C3FE9
:1011E00002BBB0F629913A9519F70B7E10911401C4
:1011F000110FC651D04002BB11F010930E0110E444
:101200001ABF006111B31B7E402F4B7E54E05A95EC
:10121000F1F702BB11BB42BB74CFCF93DF93CDB7C5
:10122000DEB7A1970FB6F894DEBF0FBECDBF0E9408
:10123000830081E00E94B1030E94E103CE01019688
:101240000E94DF0269E670E0CE0101960E947701FC
:1012500060E070E081E890E00E94D20380E090E0DE
:10126000A1960FB6F894DEBF0FBECDBFDF91CF9130
:101270000895A1E21A2EAA1BBB1BFD010DC0AA1FD7
:10128000BB1FEE1FFF1FA217B307E407F50720F0EF
:10129000A21BB30BE40BF50B661F771F881F991F6A
:1012A0001A9469F760957095809590959B01AC01B3
:1012B000BD01CF010895A29FB001B39FC001A39FBC
:1012C000700D811D1124911DB29F700D811D11247F
:1012D000911D08950E945B09A59F900DB49F900DEC
:1012E000A49F800D911D11240895CF93DF93823028
:1012F000910510F482E090E0E0912F01F09130012F
:1013000020E030E0C0E0D0E0309711F14081518121
:1013100048175907C0F04817590761F48281938133
:10132000209719F09B838A832BC090933001809380
:101330002F0126C02115310519F04217530718F463
:101340009A01BE01DF01EF010280F381E02DDCCFC5
:101350002115310509F1281B390B2430310590F492
:1013600012968D919C9113976115710521F0FB01E7
:101370009383828304C09093300180932F01FD01F9
:10138000329644C0FD01E20FF31F819391932250E6
:1013900031092D933C933AC020912D0130912E01BB
:1013A000232B41F4209165003091660030932E018B
:1013B00020932D01209163003091640021153105A7
:1013C00041F42DB73EB74091670050916800241B4F
:1013D000350BE0912D01F0912E01E217F307A0F4F7
:1013E0002E1B3F0B2817390778F0AC014E5F5F4F7B
:1013F0002417350748F04E0F5F1F50932E0140937E
:101400002D018193919302C0E0E0F0E0CF01DF91E4
:10141000CF9108950F931F93CF93DF93009709F413
:101420008CC0FC0132971382128200912F0110911F
:1014300030010115110581F420813181820F931F44
:1014400020912D0130912E012817390779F5F0935D
:101450002E01E0932D0171C0D80140E050E0AE179D
:10146000BF0750F412962D913C911397AD012115B1
:10147000310509F1D901F3CF9D01DA0133832283CC
:1014800060817181860F971F8217930769F4EC01C1
:1014900028813981260F371F2E5F3F4F31832083EC
:1014A0008A819B8193838283452B29F4F0933001B9
:1014B000E0932F0142C01396FC93EE931297ED0137
:1014C000499159919E01240F351FE217F30771F4DA
:1014D00080819181840F951F029611969C938E9323
:1014E0008281938113969C938E931297E0E0F0E0B3
:1014F000D80112968D919C911397009719F0F801DD
:101500008C01F6CF8D919C9198012E5F3F4F820FF9
:10151000931F20912D0130912E012817390769F46E
:10152000309729F41092300110922F0102C01382DB
:10153000128210932E0100932D01DF91CF911F9104
:101540000F91089581E090E0F8940C94B00AFB01AB
:10155000DC0102C001900D9241505040D8F708952F
:04156000F894FFCF2D
:10156400FFFF5A000031012000446576696365205D
:10157400686173206265656E20696E697469616C67
:10158400697A65642E2049742773206E6F7720630F
:101594006F6E6E656374656420746F207468652073
:1015A400686F73742E0068656C6C6F20776F726C53
:0215B4006400D1
:00000001FF
