:100000000C9462000C94E9060C947F000C947F0021
:100010000C947F000C947F000C947F000C947F0064
:100020000C947F000C947F000C947F000C947F0054
:100030000C947F000C947F000C947F000C947F0044
:100040000C947F000C947F000C947F000C947F0034
:100050000C947F000600FFA101150026FF00750823
:100060008501954009018182850209019182C009BB
:10007000022200010100C010090400000103000079
:1000800000092101010001221B000705810308006E
:10009000141201100100000008C016DC0501000167
:1000A00002000110036400650062007500730073B4
:1000B0000079000C0364006100760069007300049D
:1000C0000309040011241FBECFE5D8E0DEBFCDBF79
:1000D00010E0A0E6B0E0E4ECF0E102C005900D9283
:1000E000A03AB107D9F721E0A0EAB0E001C01D9223
:1000F000AB31B207E1F70E9410080C9460080C9431
:10010000000081E008959FE088E10FB6F894A8957B
:1001100081BD0FBE91BD08959C0183B7816083BFEF
:1001200083B7826083BF85E02150310970F082BFC0
:1001300098B7916098BF08B600FCF6CFA89508B6AE
:1001400000FEFCCF2150310990F713BE0895DF92D5
:10015000EF92FF920F931F93CF93DF939C0193B77E
:10016000916093BF93B7926093BFE9012197232BCE
:10017000E1F07A018B0185E0D82ED2BE98B791606C
:1001800098BF08B600FC04C0A89508B600FEFCCFD6
:10019000C701F8010995C817D90738F09E01281B37
:1001A000390BE9012197232B41F713BEDF91CF9142
:1001B0001F910F91FF90EF90DF9008959C0183B7FE
:1001C000826083BF8EEF2150310970F082BF98B7F3
:1001D000916098BF08B600FCF6CFA89508B600FE5F
:1001E000FCCF2150310990F713BE0895CF93DF93D0
:1001F000CDB7DEB728970FB6F894DEBF0FBECDBFE0
:100200009C01ABE5B1E00E94460869837A838B8349
:100210009C831D821E821F8218864D815E816F81A4
:10022000788589819A81AB81BC81481759076A0713
:100230007B07C8F4A8958D819E81AF81B885019612
:10024000A11DB11D8D839E83AF83B8874D815E81D3
:100250006F81788589819A81AB81BC814817590764
:100260006A077B0738F328960FB6F894DEBF0FBEF7
:10027000CDBFDF91CF9108959B01AC01F8941FBCD5
:100280001EBC8EB588608EBD8EB584608EBDA3E227
:10029000B4EF0E94550828EE33E040E050E00E94A1
:1002A00024083BBD2ABD89B7806189BF7894089531
:1002B0004091E200461708F4642F5091E300662352
:1002C00089F0A52FB0E0AF55BF4FFC012FEF260FEF
:1002D00030E02F5F3F4F280F391F9D919193E21718
:1002E000F307D9F7560F5093E300461B4093E20003
:1002F000862F08954091E200442329F1461708F122
:100300005091E300662389F0FC01A52FB0E0AF55C2
:10031000BF4F2FEF260F30E02F5F3F4F280F391FC1
:1003200081918D93E217F307D9F7560F5093E300AD
:10033000461B4093E20081E0411101C0089580E036
:100340000895642FDDCF81E008951092E3008EE3DD
:100350008093E2008FEF9FEF08958093A0008111BA
:1003600001C00895F89411BA12BA0E94C3068C9A7B
:100370008CE291E00E948C008C9878940895089506
:1003800008951F93CF93DF93C0E011E4C13440F58B
:10039000A8950E9453059091F00094FFF9CFD12FBA
:1003A000DC1BD93028F58C2F90E06D2F8F559F4F97
:1003B0000E943005CD0FC13448F38091F00084FFD6
:1003C0000BC0D0E0CF55DF4F60E0CE010E9430057A
:1003D0008091F00084FDF8CFDF91CF911F910895B7
:1003E000A8950E9453058091F00084FFE6CFD7CFF7
:1003F000D8E0D9CF1F93CF93DF932091A000211194
:1004000004C0DF91CF911F910895FC01019000205D
:10041000E9F731979F01281B390B41E0420F51E06A
:100420005093A1001092A2004093A300442359F0DE
:10043000DC01E4EAF0E033272B553F4F8D918193A7
:10044000E217F307D9F7C0E011E4C13440F5A895ED
:100450000E9453059091F00094FFF9CFD12FDC1B3F
:10046000D93028F58C2F90E06D2F8F559F4F0E942B
:100470003005CD0FC13448F38091F00084FFC1CF27
:10048000D0E0CF55DF4F60E0CE010E943005809173
:10049000F00084FDF8CFDF91CF911F910895A895CA
:1004A0000E9453058091F00084FFE6CFD7CFD8E0BB
:1004B000D9CF0C945305882483948CE0982E98E629
:1004C000A92E25E6B22E1CE60FE630E2C32E47E742
:1004D000D42E52E7E52E61E4F62E03C00E945305A8
:1004E000A8958091A0008823C9F38092A100109262
:1004F000A2009092A300A092A400B092A500109335
:10050000A6001093A7000093A800C092A900D09263
:10051000AA000093AB00E092AC001093AD0084E61B
:100520008093AE001092AF00C0E0C13430F5A895C2
:100530000E9453059091F00094FFF9CFDF2DDC1B52
:10054000D93008F0D8E08C2F90E06D2F8F559F4F59
:100550000E943005CD0FC13440F38091F00084FF3C
:10056000BDCFD0E0CF55DF4F60E0CE010E94300517
:100570008091F00084FDF8CFB1CFA8950E9453057B
:100580008091F00084FFE9CFD9CFEC018B01209757
:1005900021F4A8950E945902FCCFA8950E94590207
:1005A000C801FE010995F3CF0895CF93DF93EC01C5
:1005B00085E0FB01DE0101900D928A95E1F7EA8169
:1005C000FB8181E090E09C010C8002C0220F331F70
:1005D0000A94E2F73081232B2083E881F9819C0182
:1005E0000C8002C0220F331F0A94E2F73081232BC4
:1005F0002083E881F9810C8002C0880F991F0A943A
:10060000E2F78095908189238083BE9ABF9A6E9A83
:100610006C9A709A80E48FB9779BFECF1FB8779B56
:10062000FECF8FEF8FB9779BFECFE881F98181E014
:1006300090E00C8002C0880F991F0A94E2F7908125
:10064000892B8083DF91CF910895CF93DF93EC01C5
:1006500085E0FB01DE0101900D928A95E1F7EA81C8
:10066000FB8181E090E09C010C8002C0220F331FCF
:100670000A94E2F73081232B2083E881F9819C01E1
:100680000C8002C0220F331F0A94E2F73081232B23
:100690002083E881F9810C8002C0880F991F0A9499
:1006A000E2F78095908189238083BD9ABF9A6E9AE4
:1006B0006C9A709A80E48FB9779BFECF1FB8779BB6
:1006C000FECF1FB8779BFECFE881F98181E090E0F3
:1006D0000C8002C0880F991F0A94E2F79081892B41
:1006E0008083DF91CF910895FC01A081B18121E049
:1006F00030E0048002C0220F331F0A94E2F72095F5
:100700008C9128232C9381E48FB9779BFECF89E0CD
:100710008FB9779BFECF779BFECF8FB1A081B18140
:1007200021E030E0048002C0220F331F0A94E2F778
:100730009C91292B2C930895FC01A081B18121E08B
:1007400030E0048002C0220F331F0A94E2F72095A4
:100750008C9128232C9380E48FB9779BFECF89E07E
:100760008FB9779BFECF6FB9779BFECFA081B18108
:1007700021E030E0C901048002C0880F991F0A946B
:10078000E2F79C91892B8C930895BE9ABF9A6E9A3A
:100790006C9A709A80E48FB9779BFECF1FB8779BD5
:1007A000FECF8FEF8FB9779BFECF0895BD9ABF9A8A
:1007B0006E9A6C9A709A80E48FB9779BFECF1FB8BF
:1007C000779BFECF1FB8779BFECF089581E48FB94A
:1007D000779BFECF89E08FB9779BFECF779BFECFCB
:1007E0008FB1089580E48FB9779BFECF89E08FB9F0
:1007F000779BFECF6FB9779BFECF0895CF93DF93A2
:10080000CDB7DEB764970FB6F894DEBF0FBECDBF8D
:1008100022E330E0398B288B81E390E09B8B8A8B3D
:100820001C8A3C872B879E878D8781E08F87BE013E
:10083000605F7F4FCE0106960E942503BE01655F73
:100840007F4FCE0101960E94250301E010E080E475
:10085000D82E99E0E92E20E2F22EEE81FF81C80128
:100860000A8402C0880F991F0A94E2F7809590814C
:1008700089238083DFB8779BFECFEFB8779BFECFCD
:10088000FFB8779BFECFEE81FF81C8010A8402C0CA
:10089000880F991F0A94E2F79081892B8083E98160
:1008A000FA81C8010D8002C0880F991F0A94E2F7EF
:1008B0008095908189238083DFB8779BFECFEFB846
:1008C000779BFECF1FB8779BFECFE981FA81C801E5
:1008D0000D8002C0880F991F0A94E2F79081892B3E
:1008E000808384EF91E00E948C00EE81FF81C8013B
:1008F0000A8402C0880F991F0A94E2F780959081BC
:1009000089238083DFB8779BFECFEFB8779BFECF3C
:100910001FB8779BFECFEE81FF81C8010A8402C019
:10092000880F991F0A94E2F79081892B8083E981CF
:10093000FA81C8010D8002C0880F991F0A94E2F75E
:100940008095908189238083DFB8779BFECFEFB8B5
:10095000779BFECFFFB8779BFECFE981FA81C80174
:100960000D8002C0880F991F0A94E2F79081892BAD
:10097000808384EF91E00E948C006FCFCF93DF9350
:10098000EC01862F68830E940B08BD9ABF9A6E9A6D
:100990006C9A709A80E48FB9779BFECF1FB8779BD3
:1009A000FECF1FB8779BFECF8881DF91CF910C944B
:1009B0000B08CF93DF93EC01862F68830E940B080E
:1009C000BD9ABF9A6E9A6C9A709A80E48FB9779BA1
:1009D000FECF1FB8779BFECF1FB8779BFECF8881D5
:1009E000DF91CF910C940B081F93CF93DF93EC0111
:1009F00088810E940B0881E48FB9779BFECF89E044
:100A00008FB9779BFECF779BFECF1FB188810E9465
:100A10000B08812FDF91CF911F9108950F931F93A2
:100A2000CF93DF931F92CDB7DEB78C01FC0180819D
:100A300069830E940B0880E48FB96981779BFECFA0
:100A400089E08FB9779BFECF6FB9779BFECFF80116
:100A500080810F90DF91CF911F910F910C940B0823
:100A6000CF93C62F2091F00024FF19C03091F100E0
:100A700028E823272093F1002C2FFC01A2EFB0E0FF
:100A800081918D9321501216DCF36C2F82EF90E050
:100A90000E94E506CC5FC093F000CF9108952AE54F
:100AA0002093F000E9CFCF93DF9380910101835031
:100AB00087FD08C02091FE009091FD009D32E1F17C
:100AC000109201018091620084FF29C08091600032
:100AD000909161008F3F2FEF920709F189309105C6
:100AE00008F061C010926100109260003091E50042
:100AF00028E823272093E500682FC4E0009709F039
:100B0000AAC086EE90E00E94E506CC3031F08FEF6F
:100B10009FEF9093610080936000C093620094E126
:100B200080B3847131F49150D9F710920201109280
:100B3000FC00DF91CF910895883009F0C1CFCCE05F
:100B4000D0E0C21BD109CB5FDE4F83EC8093E50080
:100B50008AE5809362001092E4008881982F907655
:100B600009F075C02A811092EE009981911184C01C
:100B70008F7119F481E08093EE001092EF002EEE59
:100B800030E082E090E0309300012093FF004E813E
:100B90005F819C014817590708F49A01309361005E
:100BA000209360008DCF0897909361008093600040
:100BB0009091E50088E889278093E5002091FF0067
:100BC000309100018091E40086FD2FC0F9018191F0
:100BD0008093E60087E068E0CCE090819093E700A6
:100BE0008130E1F091819093E8008230B9F09281F8
:100BF0009093E900833091F093819093EA008430E0
:100C000069F094819093EB00853041F09581909349
:100C1000EC00863019F096819093ED00E80FF11DFD
:100C2000F0930001E093FF006CCF68E0CCE0A6EE0B
:100C3000B0E0F901862F94919D9331968150D9F7B8
:100C4000F90131968FEF860FE80FF11DE9CFCE0144
:100C50000E94A5019CCFC80F2091FF003091000198
:100C60004091E40046FDE3CFF90191919093E600B5
:100C7000815009F0B2CFD2CF953079F0963069F13A
:100C8000983091F09930D1F09A3099F09B30E9F09A
:100C90002EEE30E080E090E076CF209302012EEE41
:100CA00030E080E090E06FCF24E031E081E090E040
:100CB0006ACF2EEE30E081E090E065CF2093040112
:100CC0002EEE30E080E090E05ECF8BE48093F10088
:100CD0002EEE30E080E090E056CF8B81813071F0D5
:100CE000823091F1833029F18132D1F0823279F072
:100CF00080E090E020E42093E40049CF81E990E097
:100D0000909300018093FF0082E190E0F3CF84E5AF
:100D100090E0909300018093FF008BE190E0EACF98
:100D200081E890E0909300018093FF0089E090E0DB
:100D3000E1CF211112C08FEB90E0909300018093DE
:100D4000FF0084E090E0D6CF8FE690E09093000122
:100D50008093FF0082E290E0CDCF213059F0223025
:100D600039F683EA90E0909300018093FF0080E1E0
:100D700090E0C0CF83EB90E0909300018093FF0060
:100D80008CE090E0B7CF85B7826085BF8BB7806479
:100D90008BBFE0EFF0E08BE481838AE580830895E8
:100DA000A82FB92F80E090E041E050EA609530E054
:100DB00009C02D9182279795879510F08427952754
:100DC000305EC8F36F5FA8F30895EADF8D939D93BB
:100DD0000895CF93CFB7CF93DF93C395849BE9F763
:100DE000849B0BC0849B09C0849B07C0849B05C067
:100DF000849B03C0849B01C08BC06F93C091FE0095
:100E0000DD27CB5FDE4F2F9365E5849B03C02F91D9
:100E10006F91E6CF0F931F934F9320E040E15F93D4
:100E200000B3047104FB27F93F9350E03BE039C065
:100E3000147140642F77012F5F5F1EC0406810B3AC
:100E400014712F7752501FC0406400B32F77047184
:100E5000D1F15F5F00C023C0406210B32F771471DF
:100E600091F15F5F00C025C004711027515012F44A
:100E70005D5F0000115027952C3F10B3C8F6147128
:100E80000127015027952C3FC8F64227499300B30C
:100E9000047110274F73115027952C3FA8F64695E3
:100EA000469510B3147179F00127015027952C3F16
:100EB00098F66B5A60F3315000B3B0F600C010E4FE
:100EC0001ABF002719C03B503195C31BD04010E416
:100ED0001ABF0881033C09F10B34F9F02091FC00A2
:100EE0001981110F1213EDCF4A81441F093651F1B8
:100EF0000D3211F0013E29F7009303013F915F91FC
:100F00004F911F910F912F916F91CAB7C6FD65CF79
:100F1000DF91CF91CFBFCF9118952091030122236C
:100F200069F310910101112391F5343092F130935E
:100F300001012093FD001091FE003BE0311B309336
:100F4000FE0027C00091010101300CF50AE54F7049
:100F500049F43091620034FD1DC000936200C5EE7B
:100F6000D0E01CC03091F00034FD14C00093F000BC
:100F7000C1EFD0E013C0052710E000C0000002BBA5
:100F80001AC0052710E0221F1DC010E021C04AE54D
:100F900002C032ED432FC4E1D0E032E011B314615E
:100FA000949A02B311BB54E120E865E320FF0527C2
:100FB00002BB279517951C3FF0F66695B8F7B1F779
:100FC00020FF052702BB279517951C3FD0F62795D4
:100FD000179517FF052700001C3F02BBB0F62991AB
:100FE0003A9519F70B7E10910201110FC651D040AE
:100FF00002BB11F01093FC0010E41ABF006111B3A2
:101000001B7E402F4B7E54E05A95F1F702BB11BB7B
:1010100042BB74CF089508950895089508950895E2
:101020000E94830081E00E94AD010E94D40283E609
:1010300090E00E94FA0160E070E081E890E00E9498
:10104000C50280E090E00895A1E21A2EAA1BBB1B06
:10105000FD010DC0AA1FBB1FEE1FFF1FA217B30784
:10106000E407F50720F0A21BB30BE40BF50B661F9A
:10107000771F881F991F1A9469F76095709580955E
:1010800090959B01AC01BD01CF010895A29FB001D5
:10109000B39FC001A39F700D811D1124911DB29FAC
:1010A000700D811D1124911D08950E944608A59F71
:1010B000900DB49F900DA49F800D911D1124089553
:0410C000F894FFCFD2
:1010C400FFFF5A4465766963652068617320626531
:1010D400656E20696E697469616C697A65642E2035
:1010E40049742773206E6F7720636F6E6E65637427
:1010F400656420746F2074686520686F73742E00B3
:00000001FF
