:100000000C942A000C943C000C943C000C943C0092
:100010000C943C000C943C000C943C000C943C0070
:100020000C943C000C943C000C943C000C943C0060
:100030000C943C000C943C000C943C000C943C0050
:100040000C943C000C943C000C943C000C943C0040
:100050000C943C0011241FBECFE5D8E0DEBFCDBF1D
:1000600020E0A0E6B0E001C01D92AC36B207E1F797
:100070000E9496010C94DE010C9400000000000028
:1000800000000000000000000895662311F0C09AEF
:1000900001C0C098C19882BB8FEF81BBC29A0E94F9
:1000A0003E00C2980895CF93DF9300D0CDB7DEB75E
:1000B000C098C19A11BA90B3C29A6A8389830E9488
:1000C0003E0011BA90B3C2986A81898197FDF0CF42
:1000D0000F900F90DF91CF910C944500B89AB99A88
:1000E000BA9A80E190E00E94070160E080E30E94FC
:1000F000450085E090E00E94070160E080E30E94F7
:10010000450081E090E00E94070160E08CE30E94DE
:10011000530060E08CE00E94530060E086E00E94A3
:10012000530060E081E00C94530060E081E00C94A7
:100130005300CF93C62F98E2899FC00D112460E031
:1001400082E00E945300CC2331F060E084E10E9401
:100150005300C150F8CFCF91089561E00C94530043
:10016000CF93DF93FC018491EF012196882329F03E
:1001700061E00E945300FE01F6CFDF91CF91089518
:10018000CF93DF93EC018991882321F061E00E94F5
:100190005300F9CFDF91CF910895CF93DF9325E0FE
:1001A000CAE0D0E02150E22FF0E0EA59FF4FBE0153
:1001B0000E949901805D8083CB01009799F7CF0160
:1001C000DF91CF910C94C000CF93DF9325E0261BE5
:1001D00035E0CAE0D0E0231760F43150E32FF0E0BF
:1001E000E05AFF4FBE010E949901805D8083CB01E0
:1001F000F2CF822F263008F085E090E0805A9F4FA2
:10020000DF91CF910C94C0008FE081BD089523E071
:1002100023BF35E0019740F032BF28B7216028BFE7
:1002200008B600FEFDCFF6CF13BE0895DF92EF9221
:10023000FF920F931F93CF93DF938B017A0123E0FB
:1002400023BF25E0D22EEC012197892B69F0D2BE85
:1002500098B7916098BF08B600FEFDCFC701F801BE
:100260000995C817D90748F413BEDF91CF911F91A4
:100270000F91FF90EF90DF9008959E01281B390B9E
:10028000C901E1CFCF93DF93CDB7DEB728970FB683
:10029000F894DEBF0FBECDBF9C01ABE5B1E00E947C
:1002A000CF0169837A838B839C831D821E821F8288
:1002B00018864D815E816F81788589819A81AB81B5
:1002C000BC81481759076A077B0760F48D819E81BE
:1002D000AF81B8850196A11DB11D8D839E83AF832B
:1002E000B887E7CF28960FB6F894DEBF0FBECDBF14
:1002F000DF91CF9108959C01F8941FBC1EBC9EB560
:1003000098609EBD9EB594609EBDA3E2B4EF0E942E
:10031000CF0128EE33E040E050E00E94AD013BBD4C
:100320002ABD89B7806189BF789408950E946E00C4
:10033000FFCFAA1BBB1B51E107C0AA1FBB1FA617FB
:10034000B70710F0A61BB70B881F991F5A95A9F77E
:1003500080959095BC01CD010895A1E21A2EAA1BAB
:10036000BB1BFD010DC0AA1FBB1FEE1FFF1FA21765
:10037000B307E407F50720F0A21BB30BE40BF50B62
:10038000661F771F881F991F1A9469F760957095EB
:10039000809590959B01AC01BD01CF010895A29F6E
:1003A000B001B39FC001A39F700D811D1124911D49
:1003B000B29F700D811D1124911D0895F894FFCFF7
:00000001FF
