:100000000C942A000C943C000C943C000C943C0092
:100010000C943C000C943C000C943C000C943C0070
:100020000C943C000C943C000C943C000C943C0060
:100030000C943C000C943C000C943C000C943C0050
:100040000C943C000C943C000C943C000C943C0040
:100050000C943C0011241FBECFE5D8E0DEBFCDBF1D
:1000600020E0A0E6B0E001C01D92AC36B207E1F797
:100070000E94F6020C942A030C940000C098C19AC6
:1000800011BA90B3C29A0000000000000000000006
:10009000000011BA90B3C29897FDF0CFC09AC198F2
:1000A00082BB8FEF81BBC29A0000000000000000FD
:1000B00000000000C2980895C098C19A11BA90B388
:1000C000C29A00000000000000000000000011BA09
:1000D00090B3C29897FDF0CFC098C19882BB8FEFC4
:1000E00081BBC29A00000000000000000000000078
:1000F000C2980895CF93DF93B89AB99ABA9A80E1DB
:1001000090E00E943802C098C198D0E3D2BBCFEFF4
:10011000C1BBC29A00000000000000000000000007
:10012000C29885E090E00E943802C098C198D2BB86
:10013000C1BBC29A000000000000000000000000E7
:10014000C29881E090E00E9438028CE30E945C003B
:10015000C098C19A11BA80B3C29A00000000000092
:1001600000000000000011BA80B3C29887FDF0CFF4
:10017000C098C1988CE082BB8FEF81BBC29A00000F
:1001800000000000000000000000C29886E00E940D
:100190005C0081E0DF91CF910C945C00C098C19A23
:1001A00011BA80B3C29A00000000000000000000F5
:1001B000000011BA80B3C29887FDF0CFC098C198F3
:1001C00081E082BB8FEF81BBC29A0000000000007B
:1001D000000000000000C2980895CF93C62F98E257
:1001E000899FC00D112482E00E945C009FEF9C0F4C
:1001F000CC2301F134E12FEFC098C19A11BA80B33A
:10020000C29A00000000000000000000000011BAC7
:1002100080B3C29887FDF0CFC098C19832BB21BB94
:10022000C29A000000000000000000000000C29818
:10023000915010F7CF9108950C943E00CF93DF9327
:10024000EC012196FC018491882339F00E943E0044
:10025000FE01849121968111F9CFDF91CF9108950C
:10026000CF93DF93EC012196FC018081882329F054
:100270000E943E0089918111FBCFDF91CF910895BB
:10028000CF93DF93AC01C5E0C150EC2FF0E09A01B1
:10029000ADECBCEC0E941B03BC017695679576958E
:1002A0006795769567959B01220F331FCB01880FC9
:1002B000991F880F991F880F991F820F931F9A010A
:1002C000281B390B90E3920FEA59FF4F9083AB0143
:1002D000672BD1F6892FEF0121960E943E0089916C
:1002E0008111FBCFDF91CF9108950F931F93CF938F
:1002F000DF93AC01E5E0E61BE53008F0A5C09C010A
:10030000ADECBCEC0E941B038C011695079516956D
:100310000795169507959801220F331FC801880F7E
:10032000991F880F991F880F991F820F931F481BD1
:10033000590B405D40936400E43009F48CC098018F
:100340000E941B03EC01D695C795D695C795D69507
:10035000C7959E01220F331FCE01880F991F880F6A
:10036000991F880F991F820F931FA801481B590BD3
:10037000405D40936300E33009F470C09E010E9429
:100380001B038C01169507951695079516950795ED
:100390009801220F331FC801880F991F880F991FDA
:1003A000880F991F820F931FAE01481B590B405DA8
:1003B00040936200E23009F454C098010E941B038C
:1003C000EC01D695C795D695C795D695C7959E014C
:1003D000220F331FCE01880F991F880F991F880F96
:1003E000991F820F931FA801481B590B405D409332
:1003F0006100E11139C09E010E941B03969587950B
:1004000096958795969587959C01220F331F880FA7
:10041000991F880F991F880F991F820F931FAE0194
:10042000481B590B405D40936000C0E0D0E0CF59BD
:10043000DF4F842F0E943E0089918111FBCFDF9115
:10044000CF911F910F91089580916500C6E6D0E08D
:100450008823A9F3EFCFC4E0D0E0E9CFC3E0D0E038
:10046000E6CFC2E0D0E0E3CFC1E0D0E0E0CF089536
:100470009C0183B7816083BF83B7826083BF85E0BF
:100480002150310950F082BF98B7916098BF08B6EB
:1004900000FEFDCF21503109B0F713BE0895DF9261
:1004A000EF92FF920F931F93CF93DF939C0193B72B
:1004B000916093BF93B7926093BFE9012197232B7B
:1004C000C1F07A018B0185E0D82ED2BE98B7916039
:1004D00098BF08B600FEFDCFC701F8010995C817FF
:1004E000D90738F09E01281B390BE9012197232BEE
:1004F00061F713BEDF91CF911F910F91FF90EF90A5
:10050000DF9008959C0183B7826083BF8EEF2150F6
:10051000310950F082BF98B7916098BF08B600FECD
:10052000FDCF21503109B0F713BE0895CF93DF936B
:10053000CDB7DEB728970FB6F894DEBF0FBECDBF9C
:100540009C01ABE5B1E00E941B0369837A838B8336
:100550009C831D821E821F8218864D815E816F8161
:10056000788589819A81AB81BC81481759076A07D0
:100570007B07C0F48D819E81AF81B8850196A11D56
:10058000B11D8D839E83AF83B8874D815E816F815E
:10059000788589819A81AB81BC81481759076A07A0
:1005A0007B0740F328960FB6F894DEBF0FBECDBF91
:1005B000DF91CF9108959C01F8941FBC1EBC9EB59D
:1005C00098609EBD9EB594609EBDA3E2B4EF0E946C
:1005D0001B0328EE33E040E050E00E94F9023BBDEF
:1005E0002ABD89B7806189BF789408950E947A00F6
:1005F000FFCFA1E21A2EAA1BBB1BFD010DC0AA1F33
:10060000BB1FEE1FFF1FA217B307E407F50720F07B
:10061000A21BB30BE40BF50B661F771F881F991FF6
:100620001A9469F760957095809590959B01AC013F
:10063000BD01CF010895A29FB001B39FC001A39F48
:10064000700D811D1124911DB29F700D811D11240B
:08065000911D0895F894FFCFFD
:00000001FF
