:100000000C942A000C943C000C943C000C943C0092
:100010000C943C000C943C000C943C000C943C0070
:100020000C943C000C943C000C943C000C943C0060
:100030000C943C000C943C000C943C000C943C0050
:100040000C943C000C943C000C943C000C943C0040
:100050000C943C0011241FBECFE5D8E0DEBFCDBF1D
:1000600020E0A0E6B0E001C01D92AC36B207E1F797
:100070000E940C030C944B030C940000C098C19A8E
:1000800011BA90B3C29A0000000000000000000006
:10009000000011BA90B3C29897FDF0CFC09AC198F2
:1000A00082BB8FEF81BBC29A0000000000000000FD
:1000B00000000000C2980895C098C19A11BA90B388
:1000C000C29A00000000000000000000000011BA09
:1000D00090B3C29897FDF0CFC098C19882BB8FEFC4
:1000E00081BBC29A00000000000000000000000078
:1000F000C2980895CF93DF93B89AB99ABA9A80E1DB
:1001000090E00E944002C098C198D0E3D2BBCFEFEC
:10011000C1BBC29A00000000000000000000000007
:10012000C29885E090E00E944002C098C198D2BB7E
:10013000C1BBC29A000000000000000000000000E7
:10014000C29881E090E00E9440028CE30E945C0033
:10015000C098C19A11BA80B3C29A00000000000092
:1001600000000000000011BA80B3C29887FDF0CFF4
:10017000C098C1988CE082BB8FEF81BBC29A00000F
:1001800000000000000000000000C29886E00E940D
:100190005C0081E0DF91CF910C945C00C098C19A23
:1001A00011BA80B3C29A00000000000000000000F5
:1001B000000011BA80B3C29887FDF0CFC098C198F3
:1001C00081E082BB8FEF81BBC29A0000000000007B
:1001D000000000000000C2980895CF93C62F98E257
:1001E000899FC00D112482E00E945C009FEF9C0F4C
:1001F000CC2301F134E12FEFC098C19A11BA80B33A
:10020000C29A00000000000000000000000011BAC7
:1002100080B3C29887FDF0CFC098C19832BB21BB94
:10022000C29A000000000000000000000000C29818
:10023000915010F7CF9108950C943E00CF93DF9327
:10024000EC012196FC018491882339F00E943E0044
:10025000FE01849121968111F9CFDF91CF9108950C
:10026000CF93DF93EC012196FC018081882329F054
:100270000E943E0089918111FBCFDF91CF910895BB
:10028000CF93DF93AC01C5E0C150EC2FF0E09A01B1
:10029000ADECBCEC0E943103BC0176956795769578
:1002A0006795769567959B01220F331FCB01880FC9
:1002B000991F880F991F880F991F820F931F9A010A
:1002C000281B390B90E3920FEA59FF4F9083AB0143
:1002D000672BD1F6892FEF0121960E943E0089916C
:1002E0008111FBCFDF91CF9108950F931F93CF938F
:1002F000DF93AC01E5E0E61BE53008F0A5C09C010A
:10030000ADECBCEC0E9431038C0116950795169557
:100310000795169507959801220F331FC801880F7E
:10032000991F880F991F880F991F820F931F481BD1
:10033000590B405D40936400E43009F48CC098018F
:100340000E943103EC01D695C795D695C795D695F1
:10035000C7959E01220F331FCE01880F991F880F6A
:10036000991F880F991F820F931FA801481B590BD3
:10037000405D40936300E33009F470C09E010E9429
:1003800031038C01169507951695079516950795D7
:100390009801220F331FC801880F991F880F991FDA
:1003A000880F991F820F931FAE01481B590B405DA8
:1003B00040936200E23009F454C098010E94310376
:1003C000EC01D695C795D695C795D695C7959E014C
:1003D000220F331FCE01880F991F880F991F880F96
:1003E000991F820F931FA801481B590B405D409332
:1003F0006100E11139C09E010E94310396958795F5
:1004000096958795969587959C01220F331F880FA7
:10041000991F880F991F880F991F820F931FAE0194
:10042000481B590B405D40936000C0E0D0E0CF59BD
:10043000DF4F842F0E943E0089918111FBCFDF9115
:10044000CF911F910F91089580916500C6E6D0E08D
:100450008823A9F3EFCFC4E0D0E0E9CFC3E0D0E038
:10046000E6CFC2E0D0E0E3CFC1E0D0E0E0CF9FE054
:1004700088E10FB6F894A89581BD0FBE91BD08958F
:100480009C0183B7816083BF83B7826083BF85E0AF
:100490002150310970F082BF98B7916098BF08B6BB
:1004A00000FCF6CFA89508B600FEFCCF215031091C
:1004B00090F713BE0895DF92EF92FF920F931F9370
:1004C000CF93DF939C0193B7916093BF93B79260F2
:1004D00093BFE9012197232BE1F07A018B0185E09D
:1004E000D82ED2BE98B7916098BF08B600FC04C061
:1004F000A89508B600FEFCCFC701F8010995C817FA
:10050000D90738F09E01281B390BE9012197232BCD
:1005100041F713BEDF91CF911F910F91FF90EF90A4
:10052000DF9008959C0183B7826083BF8EEF2150D6
:10053000310970F082BF98B7916098BF08B600FC8F
:10054000F6CFA89508B600FEFCCF2150310990F7F0
:1005500013BE0895CF93DF93CDB7DEB728970FB6BC
:10056000F894DEBF0FBECDBF9C01ABE5B1E00E94A9
:10057000310369837A838B839C831D821E821F8251
:1005800018864D815E816F81788589819A81AB81E2
:10059000BC81481759076A077B07C8F4A8958D8165
:1005A0009E81AF81B8850196A11DB11D8D839E836B
:1005B000AF83B8874D815E816F81788589819A810B
:1005C000AB81BC81481759076A077B0738F3289627
:1005D0000FB6F894DEBF0FBECDBFDF91CF91089567
:1005E0009B01AC01F8941FBC1EBC8EB588608EBD0B
:1005F0008EB584608EBDA3E2B4EF0E94400328EE66
:1006000033E040E050E00E940F033BBD2ABD89B7B4
:10061000806189BF789408950E947A00FFCFA1E29B
:100620001A2EAA1BBB1BFD010DC0AA1FBB1FEE1F6C
:10063000FF1FA217B307E407F50720F0A21BB30BB7
:10064000E40BF50B661F771F881F991F1A9469F733
:1006500060957095809590959B01AC01BD01CF018F
:100660000895A29FB001B39FC001A39F700D811D8B
:100670001124911DB29F700D811D1124911D0895AB
:100680000E943103A59F900DB49F900DA49F800DF3
:0A069000911D11240895F894FFCF86
:00000001FF
