:100000000C9462000C94BF080C947F000C947F0049
:100010000C947F000C947F000C947F000C947F0064
:100020000C947F000C947F000C947F000C947F0054
:100030000C947F000C947F000C947F000C947F0044
:100040000C947F000C947F000C947F000C947F0034
:100050000C947F000600FFA101150026FF00750823
:100060008501954009018182850209019182C009BB
:10007000022200010100C032090400000103000057
:1000800000092101010001221B000705810308006E
:10009000141201100100000008C016DC0501000167
:1000A00002000110036400650062007500730073B4
:1000B0000079000C0364006100760069007300049D
:1000C0000309040011241FBECFE5D8E0DEBFCDBF79
:1000D00010E0A0E6B0E0EEE3F8E102C005900D927A
:1000E000AA37B107D9F720E0AAE7B0E001C01D9216
:1000F000A93FB207E1F70E94E0090C941D0C0C9493
:10010000000081E008959FE088E10FB6F894A8957B
:1001100081BD0FBE91BD08959C0183B7816083BFEF
:1001200083B7826083BF85E02150310970F082BFC0
:1001300098B7916098BF08B600FCF6CFA89508B6AE
:1001400000FEFCCF2150310990F713BE0895DF92D5
:10015000EF92FF920F931F93CF93DF939C0193B77E
:10016000916093BF93B7926093BFE9012197232BCE
:10017000E1F07A018B0185E0D82ED2BE98B791606C
:1001800098BF08B600FC04C0A89508B600FEFCCFD6
:10019000C701F8010995C817D90738F09E01281B37
:1001A000390BE9012197232B41F713BEDF91CF9142
:1001B0001F910F91FF90EF90DF9008959C0183B7FE
:1001C000826083BF8EEF2150310970F082BF98B7F3
:1001D000916098BF08B600FCF6CFA89508B600FE5F
:1001E000FCCF2150310990F713BE0895CF93DF93D0
:1001F000CDB7DEB728970FB6F894DEBF0FBECDBFE0
:100200009C01ABE5B1E00E94310A69837A838B835C
:100210009C831D821E821F8218864D815E816F81A4
:10022000788589819A81AB81BC81481759076A0713
:100230007B07C8F4A8958D819E81AF81B885019612
:10024000A11DB11D8D839E83AF83B8874D815E81D3
:100250006F81788589819A81AB81BC814817590764
:100260006A077B0738F328960FB6F894DEBF0FBEF7
:10027000CDBFDF91CF9108959B01AC01F8941FBCD5
:100280001EBC8EB588608EBD8EB584608EBDA3E227
:10029000B4EF0E94400A28EE33E040E050E00E94B4
:1002A0000F0A3BBD2ABD89B7806189BF7894089544
:1002B00088E790E008950E94900481E008950E94EC
:1002C0009C0481E008950C949C040C94A0040E946A
:1002D000E80B0E94E80B0E94E80B0E94E80B0E94CA
:1002E000E80B0E94E80B0E94E80B0E94E80BFF92CB
:1002F0000F931F93CF93DF93CDB7DEB7C154D109CE
:100300000FB6F894DEBF0FBECDBF8B010E94A004D4
:1003100081110DC0CF5BDF4F0FB6F894DEBF0FBE6B
:10032000CDBFDF91CF911F910F91FF900895F801FC
:1003300001900020E9F7FE2EF01A4F2D60E0CE016B
:1003400001960E9429044F2D50E0B801CE01049679
:100350000E94ED0BCE0101960E94A204DBCF2F92EA
:100360003F924F925F926F927F928F929F92AF9245
:10037000BF92CF92DF92EF92FF920F931F93CF9392
:10038000DF9300D01F92CDB7DEB73C012B011A01DD
:1003900081E2F30111928A95E9F74115510509F4BB
:1003A0005DC0FA0101900020E9F7AF01421953093D
:1003B000CA012B8349835A830E945F0A49815A816B
:1003C000B1010E94ED0B2B81F30191838083228385
:1003D0005482438216830583F086E782D286C186E3
:1003E000B486A38696868586888D998D908B87871F
:1003F0008A8D9B8D928B818B8C8D9D8D948B838B25
:100400008E8D9F8D968B858B88A199A1908F878BE0
:100410008AA19BA1928F818F8CA19DA1948F838FA4
:100420008EA19FA1968F858F88A599A590A3878F70
:100430000F900F900F90DF91CF911F910F91FF9030
:10044000EF90DF90CF90BF90AF909F908F907F9074
:100450006F905F904F903F902F90089580E090E0D4
:10046000B3CFCF93DF93EC01ED81FE8109958881B5
:1004700099810E94F40A81E2FE0111928A95E9F7BE
:10048000DF91CF910895DC011796ED91FC911897BB
:100490000994DC011996ED91FC911A970994DC01FD
:1004A0001B96ED91FC911C970994DC011D96ED9132
:1004B000FC911E970994DC011F96ED91FC915097D9
:1004C0000994DC015196ED91FC9152970994DC015D
:1004D0005396ED91FC9154970994DC015596ED915A
:1004E000FC9156970994DC015796ED91FC91589731
:1004F0000994DC015996ED91FC915A970994DC011D
:100500005B96ED91FC915C970994DC015D96ED9111
:10051000FC915E970994DC015F96ED91FC919097B8
:10052000099481E290E00E945F0AFC0181E2DF0110
:10053000982F1D929A95E9F7DF011D928A95E9F7A8
:100540001182108212821482138283E691E09683D4
:1005500085838BE591E0908787838FE591E0928793
:10056000818785E691E09487838787E691E0968787
:10057000858787E791E0908B878789E691E0928B6A
:10058000818B8BE691E0948B838B8DE691E0968B4B
:10059000858B8FE691E0908F878B81E791E0928F3A
:1005A000818F83E791E0948F838F85E791E0968F29
:1005B000858F88E591E090A3878FCF010895FC0196
:1005C00081E2DF01982F1D929A95E9F7DF011D92D4
:1005D0008A95E9F71182108212821482138283E6CF
:1005E00091E0968385838BE591E0908787838FE503
:1005F00091E09287818785E691E09487838787E6FB
:1006000091E09687858787E791E0908B878789E6D9
:1006100091E0928B818B8BE691E0948B838B8DE6BE
:1006200091E0968B858B8FE691E0908F878B81E7A9
:1006300091E0928F818F83E791E0948F838F85E79C
:1006400091E0968F858F88E591E090A3878F08953C
:10065000CF93DF93CDB7DEB7C256D1090FB6F8946A
:10066000DEBF0FBECDBFCE018E5B9F4F0E94DF026B
:100670000E94900403C00E94A304A8950E94A004B5
:100680008823C9F34CE060E0CE0101960E94290462
:100690008CE0EDE6F0E0DE01149601900D928A9573
:1006A000E1F7CE0101960E94A204E5CF08958FEFF5
:1006B00087BBC698C39A84BB81BB87BB1ABA08950F
:1006C0008FEF87BBC39884BB81BB87BB8ABB089570
:1006D000C39AC69A14BA11BA17BA1ABA0895FB0186
:1006E000808185BB818182BB8281877088BB211517
:1006F0003105E9F0FA01240F351F81918BBB85B3D9
:1007000052B347B390E0952BA0E0B0E0A42B019644
:10071000A11DB11DAD016627772747BB492F5A2F71
:100720006B2F772742BB85BBE217F30731F708959C
:10073000FB01808185BB818182BB8281877088BB00
:1007400021153105E9F0FA01240F351F8BB3819390
:1007500085B352B347B390E0952BA0E0B0E0A42B53
:100760000196A11DB11DAD016627772747BB492F13
:100770005A2F6B2F772742BB85BBE217F30731F760
:100780000895CF93DF93CDB7DEB7C550D4400FB6F1
:10079000F894DEBF0FBECDBF4E018FEF881A8DEFEC
:1007A000980A2401FE0131963F015E01FFEFAF1A66
:1007B000FBEFBF0A73018401CC24CA94D12C0E94A0
:1007C000D80BB6010E94FB09F80181938F01F70154
:1007D00011927F010A151B0591F7F8011082118211
:1007E00012821382FF24FA94F7BAC398F4BAF1BACA
:1007F000F7BAFABA20E032E0A401B801CE018B5F6B
:100800009B4F0E946F03F7BAC698C39AF4BAF1BA25
:10081000F7BA1ABA20E032E0AE014F5F5F4FB8017D
:10082000CE018B5F9B4F0E94980303C0681479042C
:1008300061F0F30191913F01F20181912F0198172D
:10084000A9F3C598BF9AC79AFDCFC798BD9AC59A14
:10085000FDCFFC0181E08083618342830895409154
:10086000BC00461708F4642F5091BD00662389F040
:10087000A52FB0E0A558BF4FFC012FEF260F30E0A9
:100880002F5F3F4F280F391F9D919193E217F30778
:10089000D9F7560F5093BD00461B4093BC00862FDE
:1008A00008954091BC00442329F1461708F1509166
:1008B000BD00662389F0FC01A52FB0E0A558BF4F0D
:1008C0002FEF260F30E02F5F3F4F280F391F819108
:1008D0008D93E217F307D9F7560F5093BD00461BCF
:1008E0004093BC0081E0411101C0089580E008956B
:1008F000642FDDCF81E008951092BD008EE38093D8
:10090000BC008FEF9FEF089580937A00811101C0A2
:100910000895F89411BA12BA0E949908789408952B
:1009200080917A00811101C008958C9A8CE291E047
:100930000E948C008C980895089580917A00089503
:1009400080E0089508950C942907EC018B0120970D
:1009500021F4A8950E94A304FCCFA8950E94A304AB
:10096000C801FE010995F3CF0895CF93DF93EC0101
:1009700085E0FB01DE0101900D928A95E1F7EA81A5
:10098000FB8181E090E09C010C8002C0220F331FAC
:100990000A94E2F73081232B2083E881F9819C01BE
:1009A0000C8002C0220F331F0A94E2F73081232B00
:1009B0002083E881F9810C8002C0880F991F0A9476
:1009C000E2F78095908189238083BE9ABF9A6E9AC0
:1009D0006C9A709A80E48FB9779BFECF1FB8779B93
:1009E000FECF8FEF8FB9779BFECFE881F98181E051
:1009F00090E00C8002C0880F991F0A94E2F7908162
:100A0000892B8083DF91CF910895CF93DF93EC0101
:100A100085E0FB01DE0101900D928A95E1F7EA8104
:100A2000FB8181E090E09C010C8002C0220F331F0B
:100A30000A94E2F73081232B2083E881F9819C011D
:100A40000C8002C0220F331F0A94E2F73081232B5F
:100A50002083E881F9810C8002C0880F991F0A94D5
:100A6000E2F78095908189238083BD9ABF9A6E9A20
:100A70006C9A709A80E48FB9779BFECF1FB8779BF2
:100A8000FECF1FB8779BFECFE881F98181E090E02F
:100A90000C8002C0880F991F0A94E2F79081892B7D
:100AA0008083DF91CF910895FC01A081B18121E085
:100AB00030E0048002C0220F331F0A94E2F7209531
:100AC0008C9128232C9381E48FB9779BFECF89E00A
:100AD0008FB9779BFECF779BFECF8FB1A081B1817D
:100AE00021E030E0048002C0220F331F0A94E2F7B5
:100AF0009C91292B2C930895FC01A081B18121E0C8
:100B000030E0048002C0220F331F0A94E2F72095E0
:100B10008C9128232C9380E48FB9779BFECF89E0BA
:100B20008FB9779BFECF6FB9779BFECFA081B18144
:100B300021E030E0C901048002C0880F991F0A94A7
:100B4000E2F79C91892B8C930895BE9ABF9A6E9A76
:100B50006C9A709A80E48FB9779BFECF1FB8779B11
:100B6000FECF8FEF8FB9779BFECF0895BD9ABF9AC6
:100B70006E9A6C9A709A80E48FB9779BFECF1FB8FB
:100B8000779BFECF1FB8779BFECF089581E48FB986
:100B9000779BFECF89E08FB9779BFECF779BFECF07
:100BA0008FB1089580E48FB9779BFECF89E08FB92C
:100BB000779BFECF6FB9779BFECF0895CF93DF93DE
:100BC000CDB7DEB764970FB6F894DEBF0FBECDBFCA
:100BD00022E330E0398B288B81E390E09B8B8A8B7A
:100BE0001C8A3C872B879E878D8781E08F87BE017B
:100BF000605F7F4FCE0106960E940505BE01655FCE
:100C00007F4FCE0101960E94050501E010E080E4CF
:100C1000D82E99E0E92E20E2F22EEE81FF81C80164
:100C20000A8402C0880F991F0A94E2F78095908188
:100C300089238083DFB8779BFECFEFB8779BFECF09
:100C4000FFB8779BFECFEE81FF81C8010A8402C006
:100C5000880F991F0A94E2F79081892B8083E9819C
:100C6000FA81C8010D8002C0880F991F0A94E2F72B
:100C70008095908189238083DFB8779BFECFEFB882
:100C8000779BFECF1FB8779BFECFE981FA81C80121
:100C90000D8002C0880F991F0A94E2F79081892B7A
:100CA000808384EF91E00E948C00EE81FF81C80177
:100CB0000A8402C0880F991F0A94E2F780959081F8
:100CC00089238083DFB8779BFECFEFB8779BFECF79
:100CD0001FB8779BFECFEE81FF81C8010A8402C056
:100CE000880F991F0A94E2F79081892B8083E9810C
:100CF000FA81C8010D8002C0880F991F0A94E2F79B
:100D00008095908189238083DFB8779BFECFEFB8F1
:100D1000779BFECFFFB8779BFECFE981FA81C801B0
:100D20000D8002C0880F991F0A94E2F79081892BE9
:100D3000808384EF91E00E948C006FCFFC01608380
:100D400082B3682B62BBC398C39ABD9ABF9A6E9A4E
:100D50006C9A709A80E48FB9779BFECF1FB8779B0F
:100D6000FECF1FB8779BFECF82B3876082BBC3984C
:100D7000C39A0895FC01608382B3682B62BBC39859
:100D8000C39ABD9ABF9A6E9A6C9A709A80E48FB992
:100D9000779BFECF1FB8779BFECF1FB8779BFECF08
:100DA00082B3876082BBC398C39A0895FC0192B353
:100DB0008081892B82BBC398C39A81E48FB9779BCA
:100DC000FECF89E08FB9779BFECF779BFECF8FB1A7
:100DD00092B3976092BBC398C39A0895FC0192B3F3
:100DE0008081892B82BBC398C39A80E48FB9779B9B
:100DF000FECF89E08FB9779BFECF6FB9779BFECF8F
:100E000082B3876082BBC398C39A0895CF93C62FDD
:100E10002091CA0024FF19C03091CB0028E8232775
:100E20002093CB002C2FFC01ACECB0E081918D9392
:100E300021501216DCF36C2F8CEC90E00E94BB0862
:100E4000CC5FC093CA00CF9108952AE52093CA00D1
:100E5000E9CFCF93DF938091DB00835087FD08C0FB
:100E60002091D8009091D7009D32E1F11092DB00E3
:100E70008091620084FF29C08091600090916100A0
:100E80008F3F2FEF920709F18930910508F061C07B
:100E900010926100109260003091BF0028E8232773
:100EA0002093BF00682FC4E0009709F0AAC080EC2F
:100EB00090E00E94BB08CC3031F08FEF9FEF909311
:100EC000610080936000C093620094E180B38471FC
:100ED00031F49150D9F71092DC001092D600DF91D6
:100EE000CF910895883009F0C1CFCCE0D0E0C21B8B
:100EF000D109C152DF4F83EC8093BF008AE5809314
:100F000062001092BE008881982F907609F075C01B
:100F10002A811092C8009981911184C08F7119F4AF
:100F200081E08093C8001092C90028EC30E082E094
:100F300090E03093DA002093D9004E815F819C01CC
:100F40004817590708F49A01309361002093600014
:100F50008DCF089790936100809360009091BF00BF
:100F600088E889278093BF002091D9003091DA006A
:100F70008091BE0086FD2FC0F90181918093C00051
:100F800087E068E0CCE090819093C1008130E1F08F
:100F900091819093C2008230B9F092819093C30006
:100FA000833091F093819093C400843069F09481F0
:100FB0009093C500853041F095819093C6008630AE
:100FC00019F096819093C700E80FF11DF093DA00B5
:100FD000E093D9006CCF68E0CCE0A0ECB0E0F90180
:100FE000862F94919D9331968150D9F7F9013196CE
:100FF0008FEF860FE80FF11DE9CFCE010E947C0430
:101000009CCFC80F2091D9003091DA004091BE00EA
:1010100046FDE3CFF90191919093C000815009F012
:10102000B2CFD2CF953079F0963069F1983091F007
:101030009930D1F09A3099F09B30E9F028EC30E00B
:1010400080E090E076CF2093DC0028EC30E080E078
:1010500090E06FCF2EED30E081E090E06ACF28EC99
:1010600030E081E090E065CF2093DE0028EC30E0B6
:1010700080E090E05ECF8BE48093CB0028EC30E002
:1010800080E090E056CF8B81813071F0823091F119
:10109000833029F18132D1F0823279F080E090E022
:1010A00020E42093BE0049CF81E990E09093DA00DC
:1010B0008093D90082E190E0F3CF84E590E09093B3
:1010C000DA008093D9008BE190E0EACF81E890E0EC
:1010D0009093DA008093D90089E090E0E1CF21116C
:1010E00012C08FEB90E09093DA008093D90084E0F7
:1010F00090E0D6CF8FE690E09093DA008093D9000D
:1011000082E290E0CDCF213059F0223039F683EAE7
:1011100090E09093DA008093D90080E190E0C0CF16
:1011200083EB90E09093DA008093D9008CE090E01C
:10113000B7CF85B7826085BF8BB780648BBFEAEC81
:10114000F0E08BE481838AE580830895A82FB92F8E
:1011500080E090E041E050EA609530E009C02D91D8
:1011600082279795879510F084279527305EC8F3DE
:101170006F5FA8F30895EADF8D939D930895CF9351
:10118000CFB7CF93DF93C395849BE9F7849B0BC0C4
:10119000849B09C0849B07C0849B05C0849B03C0BB
:1011A000849B01C08BC06F93C091D800DD27C152D2
:1011B000DF4F2F9365E5849B03C02F916F91E6CF9E
:1011C0000F931F934F9320E040E15F9300B30471AE
:1011D00004FB27F93F9350E03BE039C014714064B1
:1011E0002F77012F5F5F1EC0406810B314712F77F7
:1011F00052501FC0406400B32F770471D1F15F5F7C
:1012000000C023C0406210B32F77147191F15F5F6B
:1012100000C025C004711027515012F45D5F00001A
:10122000115027952C3F10B3C8F6147101270150B7
:1012300027952C3FC8F64227499300B30471102725
:101240004F73115027952C3FA8F64695469510B33D
:10125000147179F00127015027952C3F98F66B5AAD
:1012600060F3315000B3B0F600C010E41ABF00279D
:1012700019C03B503195C31BD04010E41ABF088100
:10128000033C09F10B34F9F02091D6001981110FBC
:101290001213EDCF4A81441F093651F10D3211F07E
:1012A000013E29F70093DD003F915F914F911F911F
:1012B0000F912F916F91CAB7C6FD65CFDF91CF9186
:1012C000CFBFCF9118952091DD00222369F31091B3
:1012D000DB00112391F5343092F13093DB00209341
:1012E000D7001091D8003BE0311B3093D80027C0C5
:1012F0000091DB0001300CF50AE54F7049F43091A4
:10130000620034FD1DC000936200CFEBD0E01CC032
:101310003091CA0034FD14C00093CA00CBECD0E079
:1013200013C0052710E000C0000002BB1AC005274B
:1013300010E0221F1DC010E021C04AE502C032EDBE
:10134000432FC4E1D0E032E011B31461949A02B3A8
:1013500011BB54E120E865E320FF052702BB279578
:1013600017951C3FF0F66695B8F7B1F720FF0527F3
:1013700002BB279517951C3FD0F62795179517FFA9
:10138000052700001C3F02BBB0F629913A9519F7DA
:101390000B7E1091DC00110FC651D04002BB11F042
:1013A0001093D60010E41ABF006111B31B7E402FCA
:1013B0004B7E54E05A95F1F702BB11BB42BB74CF90
:1013C0000E948300889A899A8A9ABB9AC39A82B3A8
:1013D000876082BBC398C39A0E94B4040E945603DC
:1013E0000E94280360E070E081E890E00E94A5047C
:1013F00080E090E0089597FB072E16F4009407D044
:1014000077FD09D00E944B0A07FC05D03EF4909569
:1014100081959F4F0895709561957F4F0895A1E242
:101420001A2EAA1BBB1BFD010DC0AA1FBB1FEE1F5E
:10143000FF1FA217B307E407F50720F0A21BB30BA9
:10144000E40BF50B661F771F881F991F1A9469F725
:1014500060957095809590959B01AC01BD01CF0181
:101460000895A29FB001B39FC001A39F700D811D7D
:101470001124911DB29F700D811D1124911D08959D
:101480000E94310AA59F900DB49F900DA49F800DDE
:10149000911D11240895AA1BBB1B51E107C0AA1F6F
:1014A000BB1FA617B70710F0A61BB70B881F991F05
:1014B0005A95A9F780959095BC01CD010895CF93D9
:1014C000DF938230910510F482E090E0E091F70024
:1014D000F091F80020E030E0C0E0D0E0309711F16A
:1014E0004081518148175907C0F04817590761F4E6
:1014F00082819381209719F09B838A832BC09093DC
:10150000F8008093F70026C02115310519F0421725
:10151000530718F49A01BE01DF01EF010280F38145
:10152000E02DDCCF2115310509F1281B390B2430C2
:10153000310590F412968D919C9113976115710568
:1015400021F0FB019383828304C09093F800809381
:10155000F700FD01329644C0FD01E20FF31F8193B5
:101560009193225031092D933C933AC02091F5007C
:101570003091F600232B41F42091650030916600F4
:101580003093F6002093F5002091630030916400C1
:101590002115310541F42DB73EB7409167005091B8
:1015A0006800241B350BE091F500F091F600E2177E
:1015B000F307A0F42E1B3F0B2817390778F0AC0176
:1015C0004E5F5F4F2417350748F04E0F5F1F509353
:1015D000F6004093F5008193919302C0E0E0F0E0C3
:1015E000CF01DF91CF9108950F931F93CF93DF9396
:1015F000009709F48CC0FC0132971382128200918B
:10160000F7001091F8000115110581F42081318156
:10161000820F931F2091F5003091F60028173907AB
:1016200079F5F093F600E093F50071C0D80140E041
:1016300050E0AE17BF0750F412962D913C911397CE
:10164000AD012115310509F1D901F3CF9D01DA0171
:101650003383228360817181860F971F82179307DE
:1016600069F4EC0128813981260F371F2E5F3F4F27
:10167000318320838A819B8193838283452B29F444
:10168000F093F800E093F70042C01396FC93EE93BA
:101690001297ED01499159919E01240F351FE217D0
:1016A000F30771F480819181840F951F0296119642
:1016B0009C938E938281938113969C938E93129721
:1016C000E0E0F0E0D80112968D919C91139700977D
:1016D00019F0F8018C01F6CF8D919C9198012E5F45
:1016E0003F4F820F931F2091F5003091F60028178D
:1016F000390769F4309729F41092F8001092F70036
:1017000002C0138212821093F6000093F500DF915D
:10171000CF911F910F9108958F929F92AF92BF9298
:10172000CF92DF92EF92FF92CF93DF93EC0168812B
:1017300079818A819B81611571058105910521F46B
:1017400064E279ED8BE597E02DE133EF41E050E085
:101750000E94F60B49015A019B01AC01A7EAB1E4D2
:101760000E94400A6B017C01ACEEB4EFA50194012C
:101770000E94180CDC01CB018C0D9D1DAE1DBF1D00
:10178000B7FF03C00197A109B04888839983AA8352
:10179000BB839F77DF91CF91FF90EF90DF90CF9049
:1017A000BF90AF909F908F9008950E948C0B0895EA
:1017B00089E690E00E948C0B0895A0E0B0E0809351
:1017C000690090936A00A0936B00B0936C00089539
:1017D00081E090E0F8940C941D0CFB01DC0102C048
:1017E00001900D9241505040D8F70895052E97FB77
:1017F0001EF400940E940D0C57FD07D00E940F0AA2
:1018000007FC03D04EF40C940D0C50954095309588
:1018100021953F4F4F4F5F4F08959095809570955C
:1018200061957F4F8F4F9F4F0895B7FF0C94400AEB
:0E1830000E94400A821B930B0895F894FFCF8C
:10183E00FFFF5A0000F90020000100000068656CEF
:0A184E006C6F20776F726C6400006D
:00000001FF
