:100000000C9462000C94B2070C947F000C947F0057
:100010000C947F000C947F000C947F000C947F0064
:100020000C947F000C947F000C947F000C947F0054
:100030000C947F000C947F000C947F000C947F0044
:100040000C947F000C947F000C947F000C947F0034
:100050000C947F000600FFA101150026FF00750823
:100060008501954009018182850209019182C009BB
:10007000022200010100C010090400000103000079
:1000800000092101010001221B000705810308006E
:10009000141201100100000008C016DC0501000167
:1000A00002000110036400650062007500730073B4
:1000B0000079000C0364006100760069007300049D
:1000C0000309040011241FBECFE5D8E0DEBFCDBF79
:1000D00010E0A0E6B0E0EAEAF3E102C005900D927C
:1000E000A836B107D9F720E0A8E6B0E001C01D921C
:1000F000A33EB207E1F70E94D3080C94D3090C94F5
:10010000000081E008959FE088E10FB6F894A8957B
:1001100081BD0FBE91BD08959C0183B7816083BFEF
:1001200083B7826083BF85E02150310970F082BFC0
:1001300098B7916098BF08B600FCF6CFA89508B6AE
:1001400000FEFCCF2150310990F713BE0895DF92D5
:10015000EF92FF920F931F93CF93DF939C0193B77E
:10016000916093BF93B7926093BFE9012197232BCE
:10017000E1F07A018B0185E0D82ED2BE98B791606C
:1001800098BF08B600FC04C0A89508B600FEFCCFD6
:10019000C701F8010995C817D90738F09E01281B37
:1001A000390BE9012197232B41F713BEDF91CF9142
:1001B0001F910F91FF90EF90DF9008959C0183B7FE
:1001C000826083BF8EEF2150310970F082BF98B7F3
:1001D000916098BF08B600FCF6CFA89508B600FE5F
:1001E000FCCF2150310990F713BE0895CF93DF93D0
:1001F000CDB7DEB728970FB6F894DEBF0FBECDBFE0
:100200009C01ABE5B1E00E94220969837A838B836C
:100210009C831D821E821F8218864D815E816F81A4
:10022000788589819A81AB81BC81481759076A0713
:100230007B07C8F4A8958D819E81AF81B885019612
:10024000A11DB11D8D839E83AF83B8874D815E81D3
:100250006F81788589819A81AB81BC814817590764
:100260006A077B0738F328960FB6F894DEBF0FBEF7
:10027000CDBFDF91CF9108959B01AC01F8941FBCD5
:100280001EBC8EB588608EBD8EB584608EBDA3E227
:10029000B4EF0E94310928EE33E040E050E00E94C4
:1002A00000093BBD2ABD89B7806189BF7894089554
:1002B00008958FEF87BBC698C39A84BB81BB87BB69
:1002C0001ABA08958FEF87BBC39884BB81BB87BBE5
:1002D0008ABB0895C39AC69A14BA11BA17BA1ABA41
:1002E0000895FB01808185BB818182BB82818770FB
:1002F00088BB21153105E9F0FA01240F351F8191E2
:100300008BBB85B352B347B390E0952BA0E0B0E030
:10031000A42B0196A11DB11DAD016627772747BB10
:10032000492F5A2F6B2F772742BB85BBE217F30764
:1003300031F70895FB01808185BB818182BB828179
:10034000877088BB21153105E9F0FA01240F351FAC
:100350008BB3819385B352B347B390E0952BA0E064
:10036000B0E0A42B0196A11DB11DAD016627772732
:1003700047BB492F5A2F6B2F772742BB85BBE2170C
:10038000F30731F70895CF93DF93CDB7DEB7C550AC
:10039000D4400FB6F894DEBF0FBECDBF4E018FEF35
:1003A000881A8DEF980A2401FE0131963F015E0103
:1003B000FFEFAF1AFBEFBF0A73018401CC24CA948C
:1003C000D12C0E949C09B6010E94EC08F80181938F
:1003D0008F01F70111927F010A151B0591F7F801B2
:1003E0001082118212821382FF24FA94F7BAC39802
:1003F000F4BAF1BAF7BAFABA20E032E0A401B801CF
:10040000CE018B5F9B4F0E947101F7BAC698C39AC9
:10041000F4BAF1BAF7BA1ABA20E032E0AE014F5F8F
:100420005F4FB801CE018B5F9B4F0E949A0103C0C2
:100430006814790461F0F30191913F01F201819117
:100440002F019817A9F3C598BF9AC79AFDCFC798EF
:10045000BD9AC59AFDCFEC018B01209721F4A89598
:100460000E948D05FCCFA8950E948D05C801FE0154
:100470000995F3CF0895CF93DF93EC0185E0FB015D
:10048000DE0101900D928A95E1F7EA81FB8181E01E
:1004900090E09C010C8002C0220F331F0A94E2F707
:1004A0003081232B2083E881F9819C010C8002C0DC
:1004B000220F331F0A94E2F73081232B2083E88137
:1004C000F9810C8002C0880F991F0A94E2F7809589
:1004D000908189238083BE9ABF9A6E9A6C9A709A93
:1004E00080E48FB9779BFECF1FB8779BFECF8FEF4D
:1004F0008FB9779BFECFE881F98181E090E00C8095
:1005000002C0880F991F0A94E2F79081892B80839B
:10051000DF91CF910895CF93DF93EC0185E0FB014C
:10052000DE0101900D928A95E1F7EA81FB8181E07D
:1005300090E09C010C8002C0220F331F0A94E2F766
:100540003081232B2083E881F9819C010C8002C03B
:10055000220F331F0A94E2F73081232B2083E88196
:10056000F9810C8002C0880F991F0A94E2F78095E8
:10057000908189238083BD9ABF9A6E9A6C9A709AF3
:1005800080E48FB9779BFECF1FB8779BFECF1FB853
:10059000779BFECFE881F98181E090E00C8002C07A
:1005A000880F991F0A94E2F79081892B8083DF914D
:1005B000CF910895FC01A081B18121E030E0048059
:1005C00002C0220F331F0A94E2F720958C91282352
:1005D0002C9381E48FB9779BFECF89E08FB9779B0D
:1005E000FECF779BFECF8FB1A081B18121E030E0BB
:1005F000048002C0220F331F0A94E2F79C91292B3A
:100600002C930895FC01A081B18121E030E00480A9
:1006100002C0220F331F0A94E2F720958C91282301
:100620002C9380E48FB9779BFECF89E08FB9779BBD
:10063000FECF6FB9779BFECFA081B18121E030E082
:10064000C901048002C0880F991F0A94E2F79C91A7
:10065000892B8C930895BE9ABF9A6E9A6C9A709A61
:1006600080E48FB9779BFECF1FB8779BFECF8FEFCB
:100670008FB9779BFECF0895BD9ABF9A6E9A6C9AF8
:10068000709A80E48FB9779BFECF1FB8779BFECF1F
:100690001FB8779BFECF089581E48FB9779BFECF7B
:1006A00089E08FB9779BFECF779BFECF8FB10895FE
:1006B00080E48FB9779BFECF89E08FB9779BFECF1F
:1006C0006FB9779BFECF0895CF93DF93CDB7DEB799
:1006D00064970FB6F894DEBF0FBECDBF22E330E0C3
:1006E000398B288B81E390E09B8B8A8B1C8A3C871B
:1006F0002B879E878D8781E08F87BE01605F7F4F4C
:10070000CE0106960E948B02BE01655F7F4FCE012F
:1007100001960E948B0201E010E080E4D82E99E05F
:10072000E92E20E2F22EEE81FF81C8010A8402C088
:10073000880F991F0A94E2F780959081892380831E
:10074000DFB8779BFECFEFB8779BFECFFFB8779BE4
:10075000FECFEE81FF81C8010A8402C0880F991F75
:100760000A94E2F79081892B8083E981FA81C8019C
:100770000D8002C0880F991F0A94E2F7809590813E
:1007800089238083DFB8779BFECFEFB8779BFECFBE
:100790001FB8779BFECFE981FA81C8010D8002C0A6
:1007A000880F991F0A94E2F79081892B808384EF48
:1007B00091E00E948C00EE81FF81C8010A8402C092
:1007C000880F991F0A94E2F780959081892380838E
:1007D000DFB8779BFECFEFB8779BFECF1FB8779B34
:1007E000FECFEE81FF81C8010A8402C0880F991FE5
:1007F0000A94E2F79081892B8083E981FA81C8010C
:100800000D8002C0880F991F0A94E2F780959081AD
:1008100089238083DFB8779BFECFEFB8779BFECF2D
:10082000FFB8779BFECFE981FA81C8010D8002C035
:10083000880F991F0A94E2F79081892B808384EFB7
:1008400091E00E948C006FCFFC01608382B3682B23
:1008500062BBC398C39ABD9ABF9A6E9A6C9A709AFB
:1008600080E48FB9779BFECF1FB8779BFECF1FB870
:10087000779BFECF82B3876082BBC398C39A0895EB
:10088000FC01608382B3682B62BBC398C39ABD9A94
:10089000BF9A6E9A6C9A709A80E48FB9779BFECF5C
:1008A0001FB8779BFECF1FB8779BFECF82B38760C0
:1008B00082BBC398C39A0895FC0192B38081892BAF
:1008C00082BBC398C39A81E48FB9779BFECF89E03E
:1008D0008FB9779BFECF779BFECF8FB192B3976096
:1008E00092BBC398C39A0895FC0192B38081892B6F
:1008F00082BBC398C39A80E48FB9779BFECF89E00F
:100900008FB9779BFECF6FB9779BFECF82B387609D
:1009100082BBC398C39A08954091AA00461708F471
:10092000642F5091AB00662389F0A52FB0E0A75942
:10093000BF4FFC012FEF260F30E02F5F3F4F280FF6
:10094000391F9D919193E217F307D9F7560F5093F2
:10095000AB00461B4093AA00862F08954091AA0041
:10096000442329F1461708F15091AB00662389F022
:10097000FC01A52FB0E0A759BF4F2FEF260F30E0A5
:100980002F5F3F4F280F391F81918D93E217F30797
:10099000D9F7560F5093AB00461B4093AA0081E055
:1009A000411101C0089580E00895642FDDCF81E0FA
:1009B00008951092AB008EE38093AA008FEF9FEF13
:1009C000089580936800811101C00895F89411BAC8
:1009D00012BA0E948C078C9A8CE291E00E948C00E3
:1009E0008C9878940895089508951F93CF93DF937A
:1009F000C0E011E4C13440F5A8950E941C06909116
:100A0000B80094FFF9CFD12FDC1BD93028F58C2FFB
:100A100090E06D2F87599F4F0E94F905CD0FC1348B
:100A200048F38091B80084FF0BC0D0E0C759DF4F76
:100A300060E0CE010E94F9058091B80084FDF8CFF6
:100A4000DF91CF911F910895A8950E941C06809177
:100A5000B80084FFE6CFD7CFD8E0D9CF1F93CF938C
:100A6000DF9320916800211104C0DF91CF911F9185
:100A70000895FC0101900020E9F731979F01281BA0
:100A8000390B41E0420F51E05093690010926A0027
:100A900040936B00442359F0DC01ECE6F0E033278F
:100AA00023593F4F8D918193E217F307D9F7C0E0A7
:100AB00011E4C13440F5A8950E941C069091B8003D
:100AC00094FFF9CFD12FDC1BD93028F58C2F90E083
:100AD0006D2F87599F4F0E94F905CD0FC13448F300
:100AE0008091B80084FFC1CFD0E0C759DF4F60E0EC
:100AF000CE010E94F9058091B80084FDF8CFDF9106
:100B0000CF911F910895A8950E941C068091B8006E
:100B100084FFE6CFD7CFD8E0D9CF0C941C06882429
:100B200083948CE0982E98E6A92E25E6B22E1CE63A
:100B30000FE630E2C32E47E7D42E52E7E52E61E4FC
:100B4000F62E03C00E941C06A89580916800882399
:100B5000C9F38092690010926A0090926B00A09293
:100B60006C00B0926D0010936E0010936F000093B4
:100B70007000C0927100D092720000937300E092F6
:100B800074001093750084E68093760010927700CD
:100B9000C0E0C13430F5A8950E941C069091B800C1
:100BA00094FFF9CFDF2DDC1BD93008F0D8E08C2F73
:100BB00090E06D2F87599F4F0E94F905CD0FC134EA
:100BC00040F38091B80084FFBDCFD0E0C759DF4F1C
:100BD00060E0CE010E94F9058091B80084FDF8CF55
:100BE000B1CFA8950E941C068091B80084FFE9CF80
:100BF000D9CFCF93C62F2091B80024FF19C03091D0
:100C0000B90028E823272093B9002C2FFC01AAEB78
:100C1000B0E081918D9321501216DCF36C2F8AEB9A
:100C200090E00E94AE07CC5FC093B800CF910895CA
:100C30002AE52093B800E9CFCF93DF938091C900D4
:100C4000835087FD08C02091C6009091C5009D3259
:100C5000E1F11092C9008091620084FF29C0809167
:100C60006000909161008F3F2FEF920709F189306A
:100C7000910508F061C010926100109260003091FF
:100C8000AD0028E823272093AD00682FC4E000972B
:100C900009F0AAC08EEA90E00E94AE07CC3031F095
:100CA0008FEF9FEF9093610080936000C09362008C
:100CB00094E180B3847131F49150D9F71092CA0055
:100CC0001092C400DF91CF910895883009F0C1CF10
:100CD000CCE0D0E0C21BD109C353DF4F83EC80933B
:100CE000AD008AE5809362001092AC008881982F55
:100CF000907609F075C02A811092B6009981911101
:100D000084C08F7119F481E08093B6001092B7000F
:100D100026EB30E082E090E03093C8002093C700DB
:100D20004E815F819C014817590708F49A0130935E
:100D30006100209360008DCF0897909361008093AD
:100D400060009091AD0088E889278093AD002091E4
:100D5000C7003091C8008091AC0086FD2FC0F9011A
:100D600081918093AE0087E068E0CCE09081909321
:100D7000AF008130E1F091819093B0008230B9F002
:100D800092819093B100833091F093819093B2005F
:100D9000843069F094819093B300853041F095815F
:100DA0009093B400863019F096819093B500E80FC7
:100DB000F11DF093C800E093C7006CCF68E0CCE071
:100DC000AEEAB0E0F901862F94919D93319681505F
:100DD000D9F7F90131968FEF860FE80FF11DE9CFB2
:100DE000CE010E94D9049CCFC80F2091C70030913A
:100DF000C8004091AC0046FDE3CFF901919190937A
:100E0000AE00815009F0B2CFD2CF953079F0963054
:100E100069F1983091F09930D1F09A3099F09B3087
:100E2000E9F026EB30E080E090E076CF2093CA0036
:100E300026EB30E080E090E06FCF2CEC30E081E0FA
:100E400090E06ACF26EB30E081E090E065CF209320
:100E5000CC0026EB30E080E090E05ECF8BE4809326
:100E6000B90026EB30E080E090E056CF8B818130F6
:100E700071F0823091F1833029F18132D1F08232E8
:100E800079F080E090E020E42093AC0049CF81E944
:100E900090E09093C8008093C70082E190E0F3CF88
:100EA00084E590E09093C8008093C7008BE190E0C8
:100EB000EACF81E890E09093C8008093C70089E072
:100EC00090E0E1CF211112C08FEB90E09093C80029
:100ED0008093C70084E090E0D6CF8FE690E09093B7
:100EE000C8008093C70082E290E0CDCF213059F056
:100EF000223039F683EA90E09093C8008093C700CF
:100F000080E190E0C0CF83EB90E09093C8008093A5
:100F1000C7008CE090E0B7CF85B7826085BF8BB704
:100F200080648BBFE8EBF0E08BE481838AE580830B
:100F30000895A82FB92F80E090E041E050EA609535
:100F400030E009C02D9182279795879510F084276E
:100F50009527305EC8F36F5FA8F30895EADF8D939D
:100F60009D930895CF93CFB7CF93DF93C395849B81
:100F7000E9F7849B0BC0849B09C0849B07C0849BBA
:100F800005C0849B03C0849B01C08BC06F93C0913C
:100F9000C600DD27C353DF4F2F9365E5849B03C055
:100FA0002F916F91E6CF0F931F934F9320E040E175
:100FB0005F9300B3047104FB27F93F9350E03BE0DB
:100FC00039C0147140642F77012F5F5F1EC04068E5
:100FD00010B314712F7752501FC0406400B32F77A5
:100FE0000471D1F15F5F00C023C0406210B32F775E
:100FF000147191F15F5F00C025C00471102751503A
:1010000012F45D5F0000115027952C3F10B3C8F615
:1010100014710127015027952C3FC8F642274993A8
:1010200000B3047110274F73115027952C3FA8F679
:101030004695469510B3147179F001270150279514
:101040002C3F98F66B5A60F3315000B3B0F600C0F5
:1010500010E41ABF002719C03B503195C31BD04084
:1010600010E41ABF0881033C09F10B34F9F0209118
:10107000C4001981110F1213EDCF4A81441F0936A4
:1010800051F10D3211F0013E29F70093CB003F9151
:101090005F914F911F910F912F916F91CAB7C6FD2C
:1010A00065CFDF91CF91CFBFCF9118952091CB0025
:1010B000222369F31091C900112391F5343092F184
:1010C0003093C9002093C5001091C6003BE0311B4E
:1010D0003093C60027C00091C90001300CF50AE525
:1010E0004F7049F43091620034FD1DC000936200DE
:1010F000CDEAD0E01CC03091B80034FD14C000939C
:10110000B800C9EBD0E013C0052710E000C0000014
:1011100002BB1AC0052710E0221F1DC010E021C02D
:101120004AE502C032ED432FC4E1D0E032E011B312
:101130001461949A02B311BB54E120E865E320FFE7
:10114000052702BB279517951C3FF0F66695B8F763
:10115000B1F720FF052702BB279517951C3FD0F656
:101160002795179517FF052700001C3F02BBB0F617
:1011700029913A9519F70B7E1091CA00110FC651AB
:10118000D04002BB11F01093C40010E41ABF0061FC
:1011900011B31B7E402F4B7E54E05A95F1F702BBF2
:1011A00011BB42BB74CF0E948300889A899A8A9AA5
:1011B000BB9AC39A82B3876082BBC398C39A0E94CA
:1011C0003A020E94580160E070E081E890E00E94DD
:1011D0002B0280E090E0089597FB072E16F4009410
:1011E00007D077FD09D00E943C0907FC05D03EF4EA
:1011F000909581959F4F0895709561957F4F0895C3
:10120000A1E21A2EAA1BBB1BFD010DC0AA1FBB1F0A
:10121000EE1FFF1FA217B307E407F50720F0A21B7C
:10122000B30BE40BF50B661F771F881F991F1A94E9
:1012300069F760957095809590959B01AC01BD0113
:10124000CF010895A29FB001B39FC001A39F700D6D
:10125000811D1124911DB29F700D811D1124911DBE
:1012600008950E942209A59F900DB49F900DA49F00
:10127000800D911D11240895AA1BBB1B51E107C0CD
:10128000AA1FBB1FA617B70710F0A61BB70B881F16
:10129000991F5A95A9F780959095BC01CD010895A5
:1012A0008F929F92AF92BF92CF92DF92EF92FF9276
:1012B000CF93DF93EC01688179818A819B816115ED
:1012C00071058105910521F464E279ED8BE597E0E4
:1012D0002DE133EF41E050E00E94AC0949015A0191
:1012E0009B01AC01A7EAB1E40E9431096B017C01CA
:1012F000ACEEB4EFA50194010E94CE09DC01CB0154
:101300008C0D9D1DAE1DBF1DB7FF03C00197A10928
:10131000B04888839983AA83BB839F77DF91CF915D
:10132000FF90EF90DF90CF90BF90AF909F908F9005
:1013300008950E945009089583E690E00E945009A4
:101340000895A0E0B0E08093630090936400A093C0
:101350006500B09366000895052E97FB1EF4009477
:101360000E94C30957FD07D00E94000907FC03D063
:101370004EF40C94C30950954095309521953F4FFC
:101380004F4F5F4F089590958095709561957F4F71
:101390008F4F9F4F0895B7FF0C9431090E94310978
:0A13A000821B930B0895F894FFCF11
:0813AA00FFFF5A0100000000E2
:00000001FF
